{
  "_format": "hh-sol-artifact-1",
  "contractName": "Campaign",
  "sourceName": "contracts/Campaign.sol",
  "abi": [
    {
      "inputs": [
        {
          "internalType": "address",
          "name": "_creator",
          "type": "address"
        },
        {
          "internalType": "string",
          "name": "_title",
          "type": "string"
        },
        {
          "internalType": "string",
          "name": "_description",
          "type": "string"
        },
        {
          "internalType": "string",
          "name": "_category",
          "type": "string"
        },
        {
          "internalType": "string[]",
          "name": "_tags",
          "type": "string[]"
        },
        {
          "internalType": "uint256",
          "name": "_goalAmount",
          "type": "uint256"
        },
        {
          "internalType": "uint256",
          "name": "_duration",
          "type": "uint256"
        },
        {
          "internalType": "string",
          "name": "_imageURI",
          "type": "string"
        },
        {
          "internalType": "string",
          "name": "_campaignURI",
          "type": "string"
        },
        {
          "internalType": "address",
          "name": "_linkTokenAddress",
          "type": "address"
        },
        {
          "internalType": "address",
          "name": "_upkeepCreatorAddress",
          "type": "address"
        }
      ],
      "stateMutability": "nonpayable",
      "type": "constructor"
    },
    {
      "inputs": [
        {
          "internalType": "address",
          "name": "_campaignAddress",
          "type": "address"
        }
      ],
      "name": "Campaign__AlreadyExpired",
      "type": "error"
    },
    {
      "inputs": [
        {
          "internalType": "address",
          "name": "_campaignAddress",
          "type": "address"
        }
      ],
      "name": "Campaign__CampaignBankrupt",
      "type": "error"
    },
    {
      "inputs": [
        {
          "internalType": "address",
          "name": "_address",
          "type": "address"
        }
      ],
      "name": "Campaign__DonatorIsCreator",
      "type": "error"
    },
    {
      "inputs": [
        {
          "internalType": "address",
          "name": "_donatorAddress",
          "type": "address"
        }
      ],
      "name": "Campaign__NoDonationsHere",
      "type": "error"
    },
    {
      "inputs": [
        {
          "internalType": "address",
          "name": "_address",
          "type": "address"
        }
      ],
      "name": "Campaign__NotCreator",
      "type": "error"
    },
    {
      "inputs": [],
      "name": "Campaign__NotInC_State",
      "type": "error"
    },
    {
      "inputs": [],
      "name": "Campaign__PayoutFailed",
      "type": "error"
    },
    {
      "inputs": [],
      "name": "Campaign__RefundFailed",
      "type": "error"
    },
    {
      "inputs": [],
      "name": "Campaign__UpkeepNotNeeded",
      "type": "error"
    },
    {
      "anonymous": false,
      "inputs": [],
      "name": "CampaignCanceled",
      "type": "event"
    },
    {
      "anonymous": false,
      "inputs": [
        {
          "indexed": false,
          "internalType": "address",
          "name": "campaignAddress",
          "type": "address"
        }
      ],
      "name": "CampaignExpired",
      "type": "event"
    },
    {
      "anonymous": false,
      "inputs": [
        {
          "indexed": false,
          "internalType": "address",
          "name": "campaignAddress",
          "type": "address"
        }
      ],
      "name": "CampaignSuccessful",
      "type": "event"
    },
    {
      "anonymous": false,
      "inputs": [
        {
          "indexed": false,
          "internalType": "address",
          "name": "creator",
          "type": "address"
        },
        {
          "indexed": false,
          "internalType": "address",
          "name": "campaignAddress",
          "type": "address"
        }
      ],
      "name": "CreatorPaid",
      "type": "event"
    },
    {
      "anonymous": false,
      "inputs": [
        {
          "indexed": true,
          "internalType": "address",
          "name": "contributor",
          "type": "address"
        },
        {
          "indexed": false,
          "internalType": "uint256",
          "name": "amount",
          "type": "uint256"
        },
        {
          "indexed": false,
          "internalType": "uint256",
          "name": "currentBalance",
          "type": "uint256"
        }
      ],
      "name": "FundingRecieved",
      "type": "event"
    },
    {
      "inputs": [],
      "name": "c_state",
      "outputs": [
        {
          "internalType": "enum Campaign.C_State",
          "name": "",
          "type": "uint8"
        }
      ],
      "stateMutability": "view",
      "type": "function"
    },
    {
      "inputs": [
        {
          "internalType": "bytes",
          "name": "",
          "type": "bytes"
        }
      ],
      "name": "checkUpkeep",
      "outputs": [
        {
          "internalType": "bool",
          "name": "upkeepNeeded",
          "type": "bool"
        },
        {
          "internalType": "bytes",
          "name": "",
          "type": "bytes"
        }
      ],
      "stateMutability": "view",
      "type": "function"
    },
    {
      "inputs": [],
      "name": "currentBalance",
      "outputs": [
        {
          "internalType": "uint256",
          "name": "",
          "type": "uint256"
        }
      ],
      "stateMutability": "view",
      "type": "function"
    },
    {
      "inputs": [],
      "name": "deadline",
      "outputs": [
        {
          "internalType": "uint256",
          "name": "",
          "type": "uint256"
        }
      ],
      "stateMutability": "view",
      "type": "function"
    },
    {
      "inputs": [
        {
          "internalType": "uint256",
          "name": "_priceID",
          "type": "uint256"
        }
      ],
      "name": "deleteReward",
      "outputs": [],
      "stateMutability": "nonpayable",
      "type": "function"
    },
    {
      "inputs": [
        {
          "internalType": "uint256",
          "name": "",
          "type": "uint256"
        }
      ],
      "name": "digRewards",
      "outputs": [
        {
          "internalType": "uint256",
          "name": "price",
          "type": "uint256"
        },
        {
          "internalType": "string",
          "name": "title",
          "type": "string"
        },
        {
          "internalType": "string",
          "name": "description",
          "type": "string"
        },
        {
          "internalType": "uint256",
          "name": "delDate",
          "type": "uint256"
        },
        {
          "internalType": "uint256",
          "name": "quantity",
          "type": "uint256"
        },
        {
          "internalType": "bool",
          "name": "infinite",
          "type": "bool"
        }
      ],
      "stateMutability": "view",
      "type": "function"
    },
    {
      "inputs": [],
      "name": "donate",
      "outputs": [],
      "stateMutability": "payable",
      "type": "function"
    },
    {
      "inputs": [
        {
          "internalType": "address",
          "name": "",
          "type": "address"
        },
        {
          "internalType": "uint256",
          "name": "",
          "type": "uint256"
        }
      ],
      "name": "donations",
      "outputs": [
        {
          "internalType": "uint256",
          "name": "",
          "type": "uint256"
        }
      ],
      "stateMutability": "view",
      "type": "function"
    },
    {
      "inputs": [],
      "name": "duration",
      "outputs": [
        {
          "internalType": "uint256",
          "name": "",
          "type": "uint256"
        }
      ],
      "stateMutability": "view",
      "type": "function"
    },
    {
      "inputs": [],
      "name": "endCampaign",
      "outputs": [],
      "stateMutability": "nonpayable",
      "type": "function"
    },
    {
      "inputs": [],
      "name": "getCampaignDetails",
      "outputs": [
        {
          "components": [
            {
              "internalType": "address",
              "name": "i_creator",
              "type": "address"
            },
            {
              "internalType": "string",
              "name": "s_title",
              "type": "string"
            },
            {
              "internalType": "string",
              "name": "s_description",
              "type": "string"
            },
            {
              "internalType": "string",
              "name": "s_category",
              "type": "string"
            },
            {
              "internalType": "string[]",
              "name": "s_tags",
              "type": "string[]"
            },
            {
              "internalType": "uint256",
              "name": "goalAmount",
              "type": "uint256"
            },
            {
              "internalType": "uint256",
              "name": "duration",
              "type": "uint256"
            },
            {
              "internalType": "uint256",
              "name": "currentBalance",
              "type": "uint256"
            },
            {
              "internalType": "enum Campaign.C_State",
              "name": "currentC_State",
              "type": "uint8"
            },
            {
              "internalType": "string",
              "name": "s_imageURI",
              "type": "string"
            },
            {
              "internalType": "string",
              "name": "s_campaignURI",
              "type": "string"
            },
            {
              "internalType": "uint256",
              "name": "i_deadline",
              "type": "uint256"
            }
          ],
          "internalType": "struct Campaign.CampaignObject",
          "name": "",
          "type": "tuple"
        }
      ],
      "stateMutability": "view",
      "type": "function"
    },
    {
      "inputs": [
        {
          "internalType": "address",
          "name": "_donator",
          "type": "address"
        }
      ],
      "name": "getDonations",
      "outputs": [
        {
          "internalType": "uint256[]",
          "name": "",
          "type": "uint256[]"
        }
      ],
      "stateMutability": "view",
      "type": "function"
    },
    {
      "inputs": [],
      "name": "goalAmount",
      "outputs": [
        {
          "internalType": "uint256",
          "name": "",
          "type": "uint256"
        }
      ],
      "stateMutability": "view",
      "type": "function"
    },
    {
      "inputs": [],
      "name": "i_creator",
      "outputs": [
        {
          "internalType": "address payable",
          "name": "",
          "type": "address"
        }
      ],
      "stateMutability": "view",
      "type": "function"
    },
    {
      "inputs": [
        {
          "internalType": "uint256",
          "name": "_price",
          "type": "uint256"
        },
        {
          "internalType": "string",
          "name": "_title",
          "type": "string"
        },
        {
          "internalType": "string",
          "name": "_description",
          "type": "string"
        },
        {
          "internalType": "string[]",
          "name": "_perks",
          "type": "string[]"
        },
        {
          "internalType": "uint256",
          "name": "_quantity",
          "type": "uint256"
        },
        {
          "internalType": "bool",
          "name": "_infinite",
          "type": "bool"
        }
      ],
      "name": "makeDigitalReward",
      "outputs": [],
      "stateMutability": "nonpayable",
      "type": "function"
    },
    {
      "inputs": [
        {
          "internalType": "uint256",
          "name": "_price",
          "type": "uint256"
        },
        {
          "internalType": "string",
          "name": "_title",
          "type": "string"
        },
        {
          "internalType": "string",
          "name": "_description",
          "type": "string"
        },
        {
          "internalType": "string[]",
          "name": "_perks",
          "type": "string[]"
        },
        {
          "internalType": "uint256",
          "name": "_deadline",
          "type": "uint256"
        },
        {
          "internalType": "uint256",
          "name": "_quantity",
          "type": "uint256"
        },
        {
          "internalType": "string[]",
          "name": "_shipsTo",
          "type": "string[]"
        }
      ],
      "name": "makePhysicalReward",
      "outputs": [],
      "stateMutability": "nonpayable",
      "type": "function"
    },
    {
      "inputs": [],
      "name": "payout",
      "outputs": [],
      "stateMutability": "nonpayable",
      "type": "function"
    },
    {
      "inputs": [
        {
          "internalType": "bytes",
          "name": "",
          "type": "bytes"
        }
      ],
      "name": "performUpkeep",
      "outputs": [],
      "stateMutability": "nonpayable",
      "type": "function"
    },
    {
      "inputs": [
        {
          "internalType": "uint256",
          "name": "",
          "type": "uint256"
        }
      ],
      "name": "phyRewards",
      "outputs": [
        {
          "internalType": "uint256",
          "name": "price",
          "type": "uint256"
        },
        {
          "internalType": "string",
          "name": "title",
          "type": "string"
        },
        {
          "internalType": "string",
          "name": "description",
          "type": "string"
        },
        {
          "internalType": "uint256",
          "name": "delDate",
          "type": "uint256"
        },
        {
          "internalType": "uint256",
          "name": "quantity",
          "type": "uint256"
        }
      ],
      "stateMutability": "view",
      "type": "function"
    },
    {
      "inputs": [
        {
          "internalType": "address",
          "name": "_donator",
          "type": "address"
        }
      ],
      "name": "refund",
      "outputs": [],
      "stateMutability": "nonpayable",
      "type": "function"
    },
    {
      "inputs": [],
      "name": "s_campaignURI",
      "outputs": [
        {
          "internalType": "string",
          "name": "",
          "type": "string"
        }
      ],
      "stateMutability": "view",
      "type": "function"
    },
    {
      "inputs": [],
      "name": "s_category",
      "outputs": [
        {
          "internalType": "string",
          "name": "",
          "type": "string"
        }
      ],
      "stateMutability": "view",
      "type": "function"
    },
    {
      "inputs": [],
      "name": "s_description",
      "outputs": [
        {
          "internalType": "string",
          "name": "",
          "type": "string"
        }
      ],
      "stateMutability": "view",
      "type": "function"
    },
    {
      "inputs": [],
      "name": "s_imageURI",
      "outputs": [
        {
          "internalType": "string",
          "name": "",
          "type": "string"
        }
      ],
      "stateMutability": "view",
      "type": "function"
    },
    {
      "inputs": [
        {
          "internalType": "uint256",
          "name": "",
          "type": "uint256"
        }
      ],
      "name": "s_tags",
      "outputs": [
        {
          "internalType": "string",
          "name": "",
          "type": "string"
        }
      ],
      "stateMutability": "view",
      "type": "function"
    },
    {
      "inputs": [],
      "name": "s_title",
      "outputs": [
        {
          "internalType": "string",
          "name": "",
          "type": "string"
        }
      ],
      "stateMutability": "view",
      "type": "function"
    },
    {
      "inputs": [],
      "name": "timeBox",
      "outputs": [],
      "stateMutability": "nonpayable",
      "type": "function"
    },
    {
      "inputs": [
        {
          "internalType": "string",
          "name": "_campaignURI",
          "type": "string"
        }
      ],
      "name": "updateCampaignURI",
      "outputs": [],
      "stateMutability": "nonpayable",
      "type": "function"
    },
    {
      "inputs": [
        {
          "internalType": "uint256",
          "name": "_additionalTime",
          "type": "uint256"
        }
      ],
      "name": "updateDuration",
      "outputs": [],
      "stateMutability": "nonpayable",
      "type": "function"
    },
    {
      "inputs": [
        {
          "internalType": "uint256",
          "name": "_newGoalAmount",
          "type": "uint256"
        }
      ],
      "name": "updateGoalAmount",
      "outputs": [],
      "stateMutability": "nonpayable",
      "type": "function"
    }
  ],
  "bytecode": "0x6101206040526000600a60006101000a81548160ff021916908360028111156200002e576200002d620003f1565b5b02179055503480156200004057600080fd5b506040516200480338038062004803833981810160405281019062000066919062000759565b8a73ffffffffffffffffffffffffffffffffffffffff1660808173ffffffffffffffffffffffffffffffffffffffff1660601b815250508960009080519060200190620000b59291906200026c565b508860019080519060200190620000ce9291906200026c565b508760029080519060200190620000e79291906200026c565b50866005908051906020019062000100929190620002fd565b50856006819055504260a08181525050624f1a0060a0516200012391906200094f565b60c081815250506200014860a05160c0516200025460201b6200267a1790919060201c565b8511156200017a576200016e60a05160c0516200025460201b6200267a1790919060201c565b60078190555062000182565b846007819055505b60075460a0516200019491906200094f565b6009819055508360039080519060200190620001b29291906200026c565b508260049080519060200190620001cb9291906200026c565b5060006008819055508173ffffffffffffffffffffffffffffffffffffffff1660e08173ffffffffffffffffffffffffffffffffffffffff1660601b815250508073ffffffffffffffffffffffffffffffffffffffff166101008173ffffffffffffffffffffffffffffffffffffffff1660601b81525050505050505050505050505062000a4c565b60008183620002649190620009ac565b905092915050565b8280546200027a9062000a16565b90600052602060002090601f0160209004810192826200029e5760008555620002ea565b82601f10620002b957805160ff1916838001178555620002ea565b82800160010185558215620002ea579182015b82811115620002e9578251825591602001919060010190620002cc565b5b509050620002f9919062000364565b5090565b82805482825590600052602060002090810192821562000351579160200282015b82811115620003505782518290805190602001906200033f9291906200026c565b50916020019190600101906200031e565b5b50905062000360919062000383565b5090565b5b808211156200037f57600081600090555060010162000365565b5090565b5b80821115620003a757600081816200039d9190620003ab565b5060010162000384565b5090565b508054620003b99062000a16565b6000825580601f10620003cd5750620003ee565b601f016020900490600052602060002090810190620003ed919062000364565b5b50565b7f4e487b7100000000000000000000000000000000000000000000000000000000600052602160045260246000fd5b6000604051905090565b600080fd5b600080fd5b600073ffffffffffffffffffffffffffffffffffffffff82169050919050565b6000620004618262000434565b9050919050565b620004738162000454565b81146200047f57600080fd5b50565b600081519050620004938162000468565b92915050565b600080fd5b600080fd5b6000601f19601f8301169050919050565b7f4e487b7100000000000000000000000000000000000000000000000000000000600052604160045260246000fd5b620004ee82620004a3565b810181811067ffffffffffffffff8211171562000510576200050f620004b4565b5b80604052505050565b60006200052562000420565b9050620005338282620004e3565b919050565b600067ffffffffffffffff821115620005565762000555620004b4565b5b6200056182620004a3565b9050602081019050919050565b60005b838110156200058e57808201518184015260208101905062000571565b838111156200059e576000848401525b50505050565b6000620005bb620005b58462000538565b62000519565b905082815260208101848484011115620005da57620005d96200049e565b5b620005e78482856200056e565b509392505050565b600082601f83011262000607576200060662000499565b5b815162000619848260208601620005a4565b91505092915050565b600067ffffffffffffffff82111562000640576200063f620004b4565b5b602082029050602081019050919050565b600080fd5b60006200066d620006678462000622565b62000519565b9050808382526020820190506020840283018581111562000693576200069262000651565b5b835b81811015620006e157805167ffffffffffffffff811115620006bc57620006bb62000499565b5b808601620006cb8982620005ef565b8552602085019450505060208101905062000695565b5050509392505050565b600082601f83011262000703576200070262000499565b5b81516200071584826020860162000656565b91505092915050565b6000819050919050565b62000733816200071e565b81146200073f57600080fd5b50565b600081519050620007538162000728565b92915050565b60008060008060008060008060008060006101608c8e0312156200078257620007816200042a565b5b6000620007928e828f0162000482565b9b505060208c015167ffffffffffffffff811115620007b657620007b56200042f565b5b620007c48e828f01620005ef565b9a505060408c015167ffffffffffffffff811115620007e857620007e76200042f565b5b620007f68e828f01620005ef565b99505060608c015167ffffffffffffffff8111156200081a57620008196200042f565b5b620008288e828f01620005ef565b98505060808c015167ffffffffffffffff8111156200084c576200084b6200042f565b5b6200085a8e828f01620006eb565b97505060a06200086d8e828f0162000742565b96505060c0620008808e828f0162000742565b95505060e08c015167ffffffffffffffff811115620008a457620008a36200042f565b5b620008b28e828f01620005ef565b9450506101008c015167ffffffffffffffff811115620008d757620008d66200042f565b5b620008e58e828f01620005ef565b935050610120620008f98e828f0162000482565b9250506101406200090d8e828f0162000482565b9150509295989b509295989b9093969950565b7f4e487b7100000000000000000000000000000000000000000000000000000000600052601160045260246000fd5b60006200095c826200071e565b915062000969836200071e565b9250827fffffffffffffffffffffffffffffffffffffffffffffffffffffffffffffffff03821115620009a157620009a062000920565b5b828201905092915050565b6000620009b9826200071e565b9150620009c6836200071e565b925082821015620009dc57620009db62000920565b5b828203905092915050565b7f4e487b7100000000000000000000000000000000000000000000000000000000600052602260045260246000fd5b6000600282049050600182168062000a2f57607f821691505b6020821081141562000a465762000a45620009e7565b5b50919050565b60805160601c60a05160c05160e05160601c6101005160601c613ce462000b1f60003960008181610f0f0152610f7501526000610f34015260008181610d250152610d8c015260008181610b1d01528181610d0401528181610d6b01526117ec0152600081816106fb01528181610c7101528181610e7d015281816110650152818161120c01528181611344015281816114cb015281816115d90152818161168a0152818161187a01528181611be101528181611c0501528181611e1301528181611fc601526120cd0152613ce46000f3fe6080604052600436106101cd5760003560e01c806369066ae9116100f7578063c00732dc11610095578063ead1b1bf11610064578063ead1b1bf14610647578063ed88c68e14610670578063f526c8491461067a578063fa89401a146106bc576101cd565b8063c00732dc1461059f578063ce2a0572146105c8578063ce845d1d146105f3578063e7cf1ab71461061e576101cd565b80638c39bedb116100d15780638c39bedb146104cb57806395086ed11461050c57806399a8502d14610549578063b145603e14610574576101cd565b806369066ae9146104395780636e04ff0d1461047657806371aac7f9146104b4576101cd565b80634278ac8b1161016f5780634ef897191161013e5780634ef89719146103a357806360bf74ee146103ce57806360fa9a72146103f757806363bd1d4a14610422576101cd565b80634278ac8b1461030f578063431f9a231461033a5780634585e33b146103515780634d695bdb1461037a576101cd565b80631910bdc2116101ab5780631910bdc2146102535780631b50ad09146102905780632636b945146102b957806329dcb0cf146102e4576101cd565b80630c611f24146101d25780630fb5a6b4146101fd57806315a46ee614610228575b600080fd5b3480156101de57600080fd5b506101e76106e5565b6040516101f49190612c7d565b60405180910390f35b34801561020957600080fd5b50610212610b44565b60405161021f9190612cae565b60405180910390f35b34801561023457600080fd5b5061023d610b4a565b60405161024a9190612d13565b60405180910390f35b34801561025f57600080fd5b5061027a60048036038101906102759190612d75565b610bd8565b6040516102879190612e51565b60405180910390f35b34801561029c57600080fd5b506102b760048036038101906102b29190612e9f565b610c6f565b005b3480156102c557600080fd5b506102ce610de1565b6040516102db9190612cae565b60405180910390f35b3480156102f057600080fd5b506102f9610de7565b6040516103069190612cae565b60405180910390f35b34801561031b57600080fd5b50610324610ded565b6040516103319190612d13565b60405180910390f35b34801561034657600080fd5b5061034f610e7b565b005b34801561035d57600080fd5b5061037860048036038101906103739190612f31565b61110c565b005b34801561038657600080fd5b506103a1600480360381019061039c91906130ae565b61120a565b005b3480156103af57600080fd5b506103b86112b4565b6040516103c59190612d13565b60405180910390f35b3480156103da57600080fd5b506103f560048036038101906103f091906131d8565b611342565b005b34801561040357600080fd5b5061040c6114b6565b60405161041991906132f9565b60405180910390f35b34801561042e57600080fd5b506104376114c9565b005b34801561044557600080fd5b50610460600480360381019061045b9190612e9f565b6116fb565b60405161046d9190612d13565b60405180910390f35b34801561048257600080fd5b5061049d600480360381019061049891906133b5565b6117a7565b6040516104ab92919061346e565b60405180910390f35b3480156104c057600080fd5b506104c9611878565b005b3480156104d757600080fd5b506104f260048036038101906104ed9190612e9f565b6119da565b60405161050395949392919061349e565b60405180910390f35b34801561051857600080fd5b50610533600480360381019061052e91906134ff565b611b20565b6040516105409190612cae565b60405180910390f35b34801561055557600080fd5b5061055e611b51565b60405161056b9190612d13565b60405180910390f35b34801561058057600080fd5b50610589611bdf565b6040516105969190613560565b60405180910390f35b3480156105ab57600080fd5b506105c660048036038101906105c191906135a7565b611c03565b005b3480156105d457600080fd5b506105dd611d7d565b6040516105ea9190612d13565b60405180910390f35b3480156105ff57600080fd5b50610608611e0b565b6040516106159190612cae565b60405180910390f35b34801561062a57600080fd5b5061064560048036038101906106409190612e9f565b611e11565b005b34801561065357600080fd5b5061066e60048036038101906106699190612e9f565b611fc4565b005b61067861205e565b005b34801561068657600080fd5b506106a1600480360381019061069c9190612e9f565b612231565b6040516106b396959493929190613688565b60405180910390f35b3480156106c857600080fd5b506106e360048036038101906106de9190612d75565b61238a565b005b6106ed6126f8565b6040518061018001604052807f000000000000000000000000000000000000000000000000000000000000000073ffffffffffffffffffffffffffffffffffffffff1681526020016000805461074290613726565b80601f016020809104026020016040519081016040528092919081815260200182805461076e90613726565b80156107bb5780601f10610790576101008083540402835291602001916107bb565b820191906000526020600020905b81548152906001019060200180831161079e57829003601f168201915b50505050508152602001600180546107d290613726565b80601f01602080910402602001604051908101604052809291908181526020018280546107fe90613726565b801561084b5780601f106108205761010080835404028352916020019161084b565b820191906000526020600020905b81548152906001019060200180831161082e57829003601f168201915b505050505081526020016002805461086290613726565b80601f016020809104026020016040519081016040528092919081815260200182805461088e90613726565b80156108db5780601f106108b0576101008083540402835291602001916108db565b820191906000526020600020905b8154815290600101906020018083116108be57829003601f168201915b505050505081526020016005805480602002602001604051908101604052809291908181526020016000905b828210156109b357838290600052602060002001805461092690613726565b80601f016020809104026020016040519081016040528092919081815260200182805461095290613726565b801561099f5780601f106109745761010080835404028352916020019161099f565b820191906000526020600020905b81548152906001019060200180831161098257829003601f168201915b505050505081526020019060010190610907565b505050508152602001600654815260200160075481526020016008548152602001600a60009054906101000a900460ff1660028111156109f6576109f5612adf565b5b815260200160038054610a0890613726565b80601f0160208091040260200160405190810160405280929190818152602001828054610a3490613726565b8015610a815780601f10610a5657610100808354040283529160200191610a81565b820191906000526020600020905b815481529060010190602001808311610a6457829003601f168201915b5050505050815260200160048054610a9890613726565b80601f0160208091040260200160405190810160405280929190818152602001828054610ac490613726565b8015610b115780601f10610ae657610100808354040283529160200191610b11565b820191906000526020600020905b815481529060010190602001808311610af457829003601f168201915b505050505081526020017f0000000000000000000000000000000000000000000000000000000000000000815250905090565b60075481565b60048054610b5790613726565b80601f0160208091040260200160405190810160405280929190818152602001828054610b8390613726565b8015610bd05780601f10610ba557610100808354040283529160200191610bd0565b820191906000526020600020905b815481529060010190602001808311610bb357829003601f168201915b505050505081565b6060600e60008373ffffffffffffffffffffffffffffffffffffffff1673ffffffffffffffffffffffffffffffffffffffff168152602001908152602001600020805480602002602001604051908101604052809291908181526020018280548015610c6357602002820191906000526020600020905b815481526020019060010190808311610c4f575b50505050509050919050565b7f000000000000000000000000000000000000000000000000000000000000000073ffffffffffffffffffffffffffffffffffffffff163373ffffffffffffffffffffffffffffffffffffffff1614610cff57336040517fef54c817000000000000000000000000000000000000000000000000000000008152600401610cf69190613767565b60405180910390fd5b610d527f00000000000000000000000000000000000000000000000000000000000000007f000000000000000000000000000000000000000000000000000000000000000061267a90919063ffffffff16565b60075482610d6091906137b1565b1115610dc457610db97f00000000000000000000000000000000000000000000000000000000000000007f000000000000000000000000000000000000000000000000000000000000000061267a90919063ffffffff16565b600781905550610dde565b8060076000828254610dd691906137b1565b925050819055505b50565b60065481565b60095481565b60028054610dfa90613726565b80601f0160208091040260200160405190810160405280929190818152602001828054610e2690613726565b8015610e735780601f10610e4857610100808354040283529160200191610e73565b820191906000526020600020905b815481529060010190602001808311610e5657829003601f168201915b505050505081565b7f000000000000000000000000000000000000000000000000000000000000000073ffffffffffffffffffffffffffffffffffffffff163373ffffffffffffffffffffffffffffffffffffffff1614610f0b57336040517fef54c817000000000000000000000000000000000000000000000000000000008152600401610f029190613767565b60405180910390fd5b60007f0000000000000000000000000000000000000000000000000000000000000000905060007f0000000000000000000000000000000000000000000000000000000000000000905060008173ffffffffffffffffffffffffffffffffffffffff166370a082317f00000000000000000000000000000000000000000000000000000000000000006040518263ffffffff1660e01b8152600401610fb09190613767565b60206040518083038186803b158015610fc857600080fd5b505afa158015610fdc573d6000803e3d6000fd5b505050506040513d601f19601f82011682018060405250810190611000919061381c565b11611040576040517f08c379a000000000000000000000000000000000000000000000000000000000815260040161103790613895565b60405180910390fd5b8173ffffffffffffffffffffffffffffffffffffffff166318a9fb8a6000306207a1207f0000000000000000000000000000000000000000000000000000000000000000678ac7230489e8000060006040518763ffffffff1660e01b81526004016110b096959493929190613adb565b602060405180830381600087803b1580156110ca57600080fd5b505af11580156110de573d6000803e3d6000fd5b505050506040513d601f19601f82011682018060405250810190611102919061381c565b600b819055505050565b6000611126604051806020016040528060008152506117a7565b50905080611160576040517f311f87a100000000000000000000000000000000000000000000000000000000815260040160405180910390fd5b6001600a60006101000a81548160ff0219169083600281111561118657611185612adf565b5b02179055507f5cf8cd2bd40f758a95257bed666285eb82801f1bf9223b8ec1481e510ba2e82d306040516111ba9190613767565b60405180910390a160065460085410611205577f5369558c667e962b633128a01c31764d053da51f61d17370d327ed17f77deccc306040516111fc9190613767565b60405180910390a15b505050565b7f000000000000000000000000000000000000000000000000000000000000000073ffffffffffffffffffffffffffffffffffffffff163373ffffffffffffffffffffffffffffffffffffffff161461129a57336040517fef54c8170000000000000000000000000000000000000000000000000000000081526004016112919190613767565b60405180910390fd5b80600490805190602001906112b0929190612781565b5050565b600180546112c190613726565b80601f01602080910402602001604051908101604052809291908181526020018280546112ed90613726565b801561133a5780601f1061130f5761010080835404028352916020019161133a565b820191906000526020600020905b81548152906001019060200180831161131d57829003601f168201915b505050505081565b7f000000000000000000000000000000000000000000000000000000000000000073ffffffffffffffffffffffffffffffffffffffff163373ffffffffffffffffffffffffffffffffffffffff16146113d257336040517fef54c8170000000000000000000000000000000000000000000000000000000081526004016113c99190613767565b60405180910390fd5b6040518060e0016040528088815260200187815260200186815260200185815260200184815260200183815260200182815250600c600089815260200190815260200160002060008201518160000155602082015181600101908051906020019061143e929190612781565b50604082015181600201908051906020019061145b929190612781565b506060820151816003019080519060200190611478929190612807565b506080820151816004015560a0820151816005015560c08201518160060190805190602001906114a9929190612807565b5090505050505050505050565b600a60009054906101000a900460ff1681565b7f000000000000000000000000000000000000000000000000000000000000000073ffffffffffffffffffffffffffffffffffffffff163373ffffffffffffffffffffffffffffffffffffffff161461155957336040517fef54c8170000000000000000000000000000000000000000000000000000000081526004016115509190613767565b60405180910390fd5b6001600281111561156d5761156c612adf565b5b600a60009054906101000a900460ff16600281111561158f5761158e612adf565b5b146115c6576040517ffa4021a300000000000000000000000000000000000000000000000000000000815260040160405180910390fd5b60006008549050600060088190555060007f000000000000000000000000000000000000000000000000000000000000000073ffffffffffffffffffffffffffffffffffffffff168260405161161b90613b9b565b60006040518083038185875af1925050503d8060008114611658576040519150601f19603f3d011682016040523d82523d6000602084013e61165d565b606091505b5050905080156116c5577fba5e837743d81ad0e6deb16089dbb65b549fdda8ad802fd8d4822884d70dc8b27f0000000000000000000000000000000000000000000000000000000000000000306040516116b8929190613bb0565b60405180910390a16116f7565b6040517f11456ffb00000000000000000000000000000000000000000000000000000000815260040160405180910390fd5b5050565b6005818154811061170b57600080fd5b90600052602060002001600091509050805461172690613726565b80601f016020809104026020016040519081016040528092919081815260200182805461175290613726565b801561179f5780601f106117745761010080835404028352916020019161179f565b820191906000526020600020905b81548152906001019060200180831161178257829003601f168201915b505050505081565b6000606060008060028111156117c0576117bf612adf565b5b600a60009054906101000a900460ff1660028111156117e2576117e1612adf565b5b14905060006007547f0000000000000000000000000000000000000000000000000000000000000000426118169190613bd9565b1190506000804711905081801561182a5750825b80156118335750805b9450846040518060400160405280600381526020017f307830000000000000000000000000000000000000000000000000000000000081525094509450505050915091565b7f000000000000000000000000000000000000000000000000000000000000000073ffffffffffffffffffffffffffffffffffffffff163373ffffffffffffffffffffffffffffffffffffffff161461190857336040517fef54c8170000000000000000000000000000000000000000000000000000000081526004016118ff9190613767565b60405180910390fd5b6001600281111561191c5761191b612adf565b5b600a60009054906101000a900460ff16600281111561193e5761193d612adf565b5b141561198157306040517fd6d7e5c10000000000000000000000000000000000000000000000000000000081526004016119789190613767565b60405180910390fd5b6002600a60006101000a81548160ff021916908360028111156119a7576119a6612adf565b5b02179055507fb83ebe09f40e9293bdea1d6567fae3175119d3d0ff13c4b4df15994837dd7f5160405160405180910390a1565b600c602052806000526040600020600091509050806000015490806001018054611a0390613726565b80601f0160208091040260200160405190810160405280929190818152602001828054611a2f90613726565b8015611a7c5780601f10611a5157610100808354040283529160200191611a7c565b820191906000526020600020905b815481529060010190602001808311611a5f57829003601f168201915b505050505090806002018054611a9190613726565b80601f0160208091040260200160405190810160405280929190818152602001828054611abd90613726565b8015611b0a5780601f10611adf57610100808354040283529160200191611b0a565b820191906000526020600020905b815481529060010190602001808311611aed57829003601f168201915b5050505050908060040154908060050154905085565b600e6020528160005260406000208181548110611b3c57600080fd5b90600052602060002001600091509150505481565b60008054611b5e90613726565b80601f0160208091040260200160405190810160405280929190818152602001828054611b8a90613726565b8015611bd75780601f10611bac57610100808354040283529160200191611bd7565b820191906000526020600020905b815481529060010190602001808311611bba57829003601f168201915b505050505081565b7f000000000000000000000000000000000000000000000000000000000000000081565b7f000000000000000000000000000000000000000000000000000000000000000073ffffffffffffffffffffffffffffffffffffffff163373ffffffffffffffffffffffffffffffffffffffff1614611c9357336040517fef54c817000000000000000000000000000000000000000000000000000000008152600401611c8a9190613767565b60405180910390fd5b6040518060e001604052808781526020018681526020018581526020018481526020016009548152602001838152602001821515815250600d6000888152602001908152602001600020600082015181600001556020820151816001019080519060200190611d03929190612781565b506040820151816002019080519060200190611d20929190612781565b506060820151816003019080519060200190611d3d929190612807565b506080820151816004015560a0820151816005015560c08201518160060160006101000a81548160ff021916908315150217905550905050505050505050565b60038054611d8a90613726565b80601f0160208091040260200160405190810160405280929190818152602001828054611db690613726565b8015611e035780601f10611dd857610100808354040283529160200191611e03565b820191906000526020600020905b815481529060010190602001808311611de657829003601f168201915b505050505081565b60085481565b7f000000000000000000000000000000000000000000000000000000000000000073ffffffffffffffffffffffffffffffffffffffff163373ffffffffffffffffffffffffffffffffffffffff1614611ea157336040517fef54c817000000000000000000000000000000000000000000000000000000008152600401611e989190613767565b60405180910390fd5b6000600c6000838152602001908152602001600020600001541115611f2f57600c6000828152602001908152602001600020600080820160009055600182016000611eec9190612867565b600282016000611efc9190612867565b600382016000611f0c91906128a7565b60048201600090556005820160009055600682016000611f2c91906128a7565b50505b6000600d6000838152602001908152602001600020600001541115611fc157600d6000828152602001908152602001600020600080820160009055600182016000611f7a9190612867565b600282016000611f8a9190612867565b600382016000611f9a91906128a7565b600482016000905560058201600090556006820160006101000a81549060ff021916905550505b50565b7f000000000000000000000000000000000000000000000000000000000000000073ffffffffffffffffffffffffffffffffffffffff163373ffffffffffffffffffffffffffffffffffffffff161461205457336040517fef54c81700000000000000000000000000000000000000000000000000000000815260040161204b9190613767565b60405180910390fd5b8060068190555050565b6000600281111561207257612071612adf565b5b600a60009054906101000a900460ff16600281111561209457612093612adf565b5b146120cb576040517ffa4021a300000000000000000000000000000000000000000000000000000000815260040160405180910390fd5b7f000000000000000000000000000000000000000000000000000000000000000073ffffffffffffffffffffffffffffffffffffffff163373ffffffffffffffffffffffffffffffffffffffff16141561215c57336040517f911018950000000000000000000000000000000000000000000000000000000081526004016121539190613767565b60405180910390fd5b600e60003373ffffffffffffffffffffffffffffffffffffffff1673ffffffffffffffffffffffffffffffffffffffff1681526020019081526020016000203490806001815401808255809150506001900390600052602060002001600090919091909150556121d73460085461269090919063ffffffff16565b6008819055503373ffffffffffffffffffffffffffffffffffffffff167fe76ad748537a48e778fef43dda4a6bd1b50cd62385f9f21a9ca267492355120834600854604051612227929190613c0d565b60405180910390a2565b600d60205280600052604060002060009150905080600001549080600101805461225a90613726565b80601f016020809104026020016040519081016040528092919081815260200182805461228690613726565b80156122d35780601f106122a8576101008083540402835291602001916122d3565b820191906000526020600020905b8154815290600101906020018083116122b657829003601f168201915b5050505050908060020180546122e890613726565b80601f016020809104026020016040519081016040528092919081815260200182805461231490613726565b80156123615780601f1061233657610100808354040283529160200191612361565b820191906000526020600020905b81548152906001019060200180831161234457829003601f168201915b5050505050908060040154908060050154908060060160009054906101000a900460ff16905086565b6001600281111561239e5761239d612adf565b5b600a60009054906101000a900460ff1660028111156123c0576123bf612adf565b5b141561240357306040517fd6d7e5c10000000000000000000000000000000000000000000000000000000081526004016123fa9190613767565b60405180910390fd5b6000600e60008373ffffffffffffffffffffffffffffffffffffffff1673ffffffffffffffffffffffffffffffffffffffff16815260200190815260200160002080549050141561248b57806040517fc43858590000000000000000000000000000000000000000000000000000000081526004016124829190613767565b60405180910390fd5b6000612523600e60008473ffffffffffffffffffffffffffffffffffffffff1673ffffffffffffffffffffffffffffffffffffffff16815260200190815260200160002080548060200260200160405190810160405280929190818152602001828054801561251957602002820191906000526020600020905b815481526020019060010190808311612505575b50505050506126a6565b9050600e60008373ffffffffffffffffffffffffffffffffffffffff1673ffffffffffffffffffffffffffffffffffffffff168152602001908152602001600020600061257091906128c8565b8060085410156125b757306040517f6db510f50000000000000000000000000000000000000000000000000000000081526004016125ae9190613767565b60405180910390fd5b6125cc8160085461267a90919063ffffffff16565b60088190555060008273ffffffffffffffffffffffffffffffffffffffff16826040516125f890613b9b565b60006040518083038185875af1925050503d8060008114612635576040519150601f19603f3d011682016040523d82523d6000602084013e61263a565b606091505b5050905080612675576040517f92e9f8f100000000000000000000000000000000000000000000000000000000815260040160405180910390fd5b505050565b600081836126889190613bd9565b905092915050565b6000818361269e91906137b1565b905092915050565b600080600090505b82518110156126f2578281815181106126ca576126c9613c36565b5b6020026020010151826126dd91906137b1565b915080806126ea90613c65565b9150506126ae565b50919050565b604051806101800160405280600073ffffffffffffffffffffffffffffffffffffffff168152602001606081526020016060815260200160608152602001606081526020016000815260200160008152602001600081526020016000600281111561276657612765612adf565b5b81526020016060815260200160608152602001600081525090565b82805461278d90613726565b90600052602060002090601f0160209004810192826127af57600085556127f6565b82601f106127c857805160ff19168380011785556127f6565b828001600101855582156127f6579182015b828111156127f55782518255916020019190600101906127da565b5b50905061280391906128e9565b5090565b828054828255906000526020600020908101928215612856579160200282015b82811115612855578251829080519060200190612845929190612781565b5091602001919060010190612827565b5b5090506128639190612906565b5090565b50805461287390613726565b6000825580601f1061288557506128a4565b601f0160209004906000526020600020908101906128a391906128e9565b5b50565b50805460008255906000526020600020908101906128c59190612906565b50565b50805460008255906000526020600020908101906128e691906128e9565b50565b5b808211156129025760008160009055506001016128ea565b5090565b5b80821115612926576000818161291d9190612867565b50600101612907565b5090565b600073ffffffffffffffffffffffffffffffffffffffff82169050919050565b60006129558261292a565b9050919050565b6129658161294a565b82525050565b600081519050919050565b600082825260208201905092915050565b60005b838110156129a557808201518184015260208101905061298a565b838111156129b4576000848401525b50505050565b6000601f19601f8301169050919050565b60006129d68261296b565b6129e08185612976565b93506129f0818560208601612987565b6129f9816129ba565b840191505092915050565b600081519050919050565b600082825260208201905092915050565b6000819050602082019050919050565b6000612a3c83836129cb565b905092915050565b6000602082019050919050565b6000612a5c82612a04565b612a668185612a0f565b935083602082028501612a7885612a20565b8060005b85811015612ab45784840389528151612a958582612a30565b9450612aa083612a44565b925060208a01995050600181019050612a7c565b50829750879550505050505092915050565b6000819050919050565b612ad981612ac6565b82525050565b7f4e487b7100000000000000000000000000000000000000000000000000000000600052602160045260246000fd5b60038110612b1f57612b1e612adf565b5b50565b6000819050612b3082612b0e565b919050565b6000612b4082612b22565b9050919050565b612b5081612b35565b82525050565b600061018083016000830151612b6f600086018261295c565b5060208301518482036020860152612b8782826129cb565b91505060408301518482036040860152612ba182826129cb565b91505060608301518482036060860152612bbb82826129cb565b91505060808301518482036080860152612bd58282612a51565b91505060a0830151612bea60a0860182612ad0565b5060c0830151612bfd60c0860182612ad0565b5060e0830151612c1060e0860182612ad0565b50610100830151612c25610100860182612b47565b50610120830151848203610120860152612c3f82826129cb565b915050610140830151848203610140860152612c5b82826129cb565b915050610160830151612c72610160860182612ad0565b508091505092915050565b60006020820190508181036000830152612c978184612b56565b905092915050565b612ca881612ac6565b82525050565b6000602082019050612cc36000830184612c9f565b92915050565b600082825260208201905092915050565b6000612ce58261296b565b612cef8185612cc9565b9350612cff818560208601612987565b612d08816129ba565b840191505092915050565b60006020820190508181036000830152612d2d8184612cda565b905092915050565b6000604051905090565b600080fd5b600080fd5b612d528161294a565b8114612d5d57600080fd5b50565b600081359050612d6f81612d49565b92915050565b600060208284031215612d8b57612d8a612d3f565b5b6000612d9984828501612d60565b91505092915050565b600081519050919050565b600082825260208201905092915050565b6000819050602082019050919050565b6000612dda8383612ad0565b60208301905092915050565b6000602082019050919050565b6000612dfe82612da2565b612e088185612dad565b9350612e1383612dbe565b8060005b83811015612e44578151612e2b8882612dce565b9750612e3683612de6565b925050600181019050612e17565b5085935050505092915050565b60006020820190508181036000830152612e6b8184612df3565b905092915050565b612e7c81612ac6565b8114612e8757600080fd5b50565b600081359050612e9981612e73565b92915050565b600060208284031215612eb557612eb4612d3f565b5b6000612ec384828501612e8a565b91505092915050565b600080fd5b600080fd5b600080fd5b60008083601f840112612ef157612ef0612ecc565b5b8235905067ffffffffffffffff811115612f0e57612f0d612ed1565b5b602083019150836001820283011115612f2a57612f29612ed6565b5b9250929050565b60008060208385031215612f4857612f47612d3f565b5b600083013567ffffffffffffffff811115612f6657612f65612d44565b5b612f7285828601612edb565b92509250509250929050565b600080fd5b7f4e487b7100000000000000000000000000000000000000000000000000000000600052604160045260246000fd5b612fbb826129ba565b810181811067ffffffffffffffff82111715612fda57612fd9612f83565b5b80604052505050565b6000612fed612d35565b9050612ff98282612fb2565b919050565b600067ffffffffffffffff82111561301957613018612f83565b5b613022826129ba565b9050602081019050919050565b82818337600083830152505050565b600061305161304c84612ffe565b612fe3565b90508281526020810184848401111561306d5761306c612f7e565b5b61307884828561302f565b509392505050565b600082601f83011261309557613094612ecc565b5b81356130a584826020860161303e565b91505092915050565b6000602082840312156130c4576130c3612d3f565b5b600082013567ffffffffffffffff8111156130e2576130e1612d44565b5b6130ee84828501613080565b91505092915050565b600067ffffffffffffffff82111561311257613111612f83565b5b602082029050602081019050919050565b6000613136613131846130f7565b612fe3565b9050808382526020820190506020840283018581111561315957613158612ed6565b5b835b818110156131a057803567ffffffffffffffff81111561317e5761317d612ecc565b5b80860161318b8982613080565b8552602085019450505060208101905061315b565b5050509392505050565b600082601f8301126131bf576131be612ecc565b5b81356131cf848260208601613123565b91505092915050565b600080600080600080600060e0888a0312156131f7576131f6612d3f565b5b60006132058a828b01612e8a565b975050602088013567ffffffffffffffff81111561322657613225612d44565b5b6132328a828b01613080565b965050604088013567ffffffffffffffff81111561325357613252612d44565b5b61325f8a828b01613080565b955050606088013567ffffffffffffffff8111156132805761327f612d44565b5b61328c8a828b016131aa565b945050608061329d8a828b01612e8a565b93505060a06132ae8a828b01612e8a565b92505060c088013567ffffffffffffffff8111156132cf576132ce612d44565b5b6132db8a828b016131aa565b91505092959891949750929550565b6132f381612b35565b82525050565b600060208201905061330e60008301846132ea565b92915050565b600067ffffffffffffffff82111561332f5761332e612f83565b5b613338826129ba565b9050602081019050919050565b600061335861335384613314565b612fe3565b90508281526020810184848401111561337457613373612f7e565b5b61337f84828561302f565b509392505050565b600082601f83011261339c5761339b612ecc565b5b81356133ac848260208601613345565b91505092915050565b6000602082840312156133cb576133ca612d3f565b5b600082013567ffffffffffffffff8111156133e9576133e8612d44565b5b6133f584828501613387565b91505092915050565b60008115159050919050565b613413816133fe565b82525050565b600081519050919050565b600082825260208201905092915050565b600061344082613419565b61344a8185613424565b935061345a818560208601612987565b613463816129ba565b840191505092915050565b6000604082019050613483600083018561340a565b81810360208301526134958184613435565b90509392505050565b600060a0820190506134b36000830188612c9f565b81810360208301526134c58187612cda565b905081810360408301526134d98186612cda565b90506134e86060830185612c9f565b6134f56080830184612c9f565b9695505050505050565b6000806040838503121561351657613515612d3f565b5b600061352485828601612d60565b925050602061353585828601612e8a565b9150509250929050565b600061354a8261292a565b9050919050565b61355a8161353f565b82525050565b60006020820190506135756000830184613551565b92915050565b613584816133fe565b811461358f57600080fd5b50565b6000813590506135a18161357b565b92915050565b60008060008060008060c087890312156135c4576135c3612d3f565b5b60006135d289828a01612e8a565b965050602087013567ffffffffffffffff8111156135f3576135f2612d44565b5b6135ff89828a01613080565b955050604087013567ffffffffffffffff8111156136205761361f612d44565b5b61362c89828a01613080565b945050606087013567ffffffffffffffff81111561364d5761364c612d44565b5b61365989828a016131aa565b935050608061366a89828a01612e8a565b92505060a061367b89828a01613592565b9150509295509295509295565b600060c08201905061369d6000830189612c9f565b81810360208301526136af8188612cda565b905081810360408301526136c38187612cda565b90506136d26060830186612c9f565b6136df6080830185612c9f565b6136ec60a083018461340a565b979650505050505050565b7f4e487b7100000000000000000000000000000000000000000000000000000000600052602260045260246000fd5b6000600282049050600182168061373e57607f821691505b60208210811415613752576137516136f7565b5b50919050565b6137618161294a565b82525050565b600060208201905061377c6000830184613758565b92915050565b7f4e487b7100000000000000000000000000000000000000000000000000000000600052601160045260246000fd5b60006137bc82612ac6565b91506137c783612ac6565b9250827fffffffffffffffffffffffffffffffffffffffffffffffffffffffffffffffff038211156137fc576137fb613782565b5b828201905092915050565b60008151905061381681612e73565b92915050565b60006020828403121561383257613831612d3f565b5b600061384084828501613807565b91505092915050565b7f6e6f2066756e6473000000000000000000000000000000000000000000000000600082015250565b600061387f600883612cc9565b915061388a82613849565b602082019050919050565b600060208201905081810360008301526138ae81613872565b9050919050565b60008190508160005260206000209050919050565b600081546138d781613726565b6138e18186612cc9565b945060018216600081146138fc576001811461390e57613941565b60ff1983168652602086019350613941565b613917856138b5565b60005b838110156139395781548189015260018201915060208101905061391a565b808801955050505b50505092915050565b7f3078000000000000000000000000000000000000000000000000000000000000600082015250565b6000613980600283613424565b915061398b8261394a565b602082019050919050565b6000819050919050565b600063ffffffff82169050919050565b6000819050919050565b60006139d56139d06139cb84613996565b6139b0565b6139a0565b9050919050565b6139e5816139ba565b82525050565b6000613a06613a016139fc8461292a565b6139b0565b61292a565b9050919050565b6000613a18826139eb565b9050919050565b6000613a2a82613a0d565b9050919050565b613a3a81613a1f565b82525050565b6000819050919050565b60006bffffffffffffffffffffffff82169050919050565b6000613a7d613a78613a7384613a40565b6139b0565b613a4a565b9050919050565b613a8d81613a62565b82525050565b6000819050919050565b600060ff82169050919050565b6000613ac5613ac0613abb84613a93565b6139b0565b613a9d565b9050919050565b613ad581613aaa565b82525050565b6000610100820190508181036000830152613af681896138ca565b90508181036020830152613b0981613973565b9050613b186040830188613758565b613b2560608301876139dc565b613b326080830186613a31565b81810360a0830152613b4381613973565b9050613b5260c0830185613a84565b613b5f60e0830184613acc565b979650505050505050565b600081905092915050565b50565b6000613b85600083613b6a565b9150613b9082613b75565b600082019050919050565b6000613ba682613b78565b9150819050919050565b6000604082019050613bc56000830185613a31565b613bd26020830184613758565b9392505050565b6000613be482612ac6565b9150613bef83612ac6565b925082821015613c0257613c01613782565b5b828203905092915050565b6000604082019050613c226000830185612c9f565b613c2f6020830184612c9f565b9392505050565b7f4e487b7100000000000000000000000000000000000000000000000000000000600052603260045260246000fd5b6000613c7082612ac6565b91507fffffffffffffffffffffffffffffffffffffffffffffffffffffffffffffffff821415613ca357613ca2613782565b5b60018201905091905056fea2646970667358221220a6e1a2effb0375e0cd8748f907e520e82543aa1960ceda710a3ea77a6669a4f464736f6c63430008080033",
  "linkReferences": {},
  "deployedLinkReferences": {}
}