{
  "_format": "hh-sol-artifact-1",
  "contractName": "Campaign",
  "sourceName": "contracts/Campaign.sol",
  "abi": [
    {
      "inputs": [
        {
          "internalType": "address",
          "name": "_creator",
          "type": "address"
        },
        {
          "internalType": "string",
          "name": "_title",
          "type": "string"
        },
        {
          "internalType": "string",
          "name": "_description",
          "type": "string"
        },
        {
          "internalType": "string",
          "name": "_category",
          "type": "string"
        },
        {
          "internalType": "string[]",
          "name": "_tags",
          "type": "string[]"
        },
        {
          "internalType": "uint256",
          "name": "_goalAmount",
          "type": "uint256"
        },
        {
          "internalType": "uint256",
          "name": "_duration",
          "type": "uint256"
        },
        {
          "internalType": "string",
          "name": "_imageURI",
          "type": "string"
        },
        {
          "internalType": "string",
          "name": "_campaignURI",
          "type": "string"
        },
        {
          "internalType": "address",
          "name": "_linkTokenAddress",
          "type": "address"
        },
        {
          "internalType": "address",
          "name": "_upkeepCreatorAddress",
          "type": "address"
        }
      ],
      "stateMutability": "nonpayable",
      "type": "constructor"
    },
    {
      "inputs": [
        {
          "internalType": "address",
          "name": "_campaignAddress",
          "type": "address"
        }
      ],
      "name": "Campaign__AlreadyExpired",
      "type": "error"
    },
    {
      "inputs": [
        {
          "internalType": "address",
          "name": "_campaignAddress",
          "type": "address"
        }
      ],
      "name": "Campaign__CampaignBankrupt",
      "type": "error"
    },
    {
      "inputs": [
        {
          "internalType": "address",
          "name": "_address",
          "type": "address"
        }
      ],
      "name": "Campaign__DonatorIsCreator",
      "type": "error"
    },
    {
      "inputs": [
        {
          "internalType": "address",
          "name": "_donatorAddress",
          "type": "address"
        }
      ],
      "name": "Campaign__NoDonationsHere",
      "type": "error"
    },
    {
      "inputs": [
        {
          "internalType": "address",
          "name": "_address",
          "type": "address"
        }
      ],
      "name": "Campaign__NotCreator",
      "type": "error"
    },
    {
      "inputs": [],
      "name": "Campaign__NotInC_State",
      "type": "error"
    },
    {
      "inputs": [],
      "name": "Campaign__PayoutFailed",
      "type": "error"
    },
    {
      "inputs": [],
      "name": "Campaign__RefundFailed",
      "type": "error"
    },
    {
      "inputs": [],
      "name": "Campaign__UpkeepNotNeeded",
      "type": "error"
    },
    {
      "anonymous": false,
      "inputs": [],
      "name": "CampaignCanceled",
      "type": "event"
    },
    {
      "anonymous": false,
      "inputs": [
        {
          "indexed": false,
          "internalType": "address",
          "name": "campaignAddress",
          "type": "address"
        }
      ],
      "name": "CampaignExpired",
      "type": "event"
    },
    {
      "anonymous": false,
      "inputs": [
        {
          "indexed": false,
          "internalType": "address",
          "name": "campaignAddress",
          "type": "address"
        }
      ],
      "name": "CampaignSuccessful",
      "type": "event"
    },
    {
      "anonymous": false,
      "inputs": [
        {
          "indexed": false,
          "internalType": "address",
          "name": "creator",
          "type": "address"
        },
        {
          "indexed": false,
          "internalType": "address",
          "name": "campaignAddress",
          "type": "address"
        }
      ],
      "name": "CreatorPaid",
      "type": "event"
    },
    {
      "anonymous": false,
      "inputs": [
        {
          "indexed": true,
          "internalType": "address",
          "name": "contributor",
          "type": "address"
        },
        {
          "indexed": false,
          "internalType": "uint256",
          "name": "amount",
          "type": "uint256"
        },
        {
          "indexed": false,
          "internalType": "uint256",
          "name": "currentBalance",
          "type": "uint256"
        }
      ],
      "name": "FundingRecieved",
      "type": "event"
    },
    {
      "inputs": [],
      "name": "c_state",
      "outputs": [
        {
          "internalType": "enum Campaign.C_State",
          "name": "",
          "type": "uint8"
        }
      ],
      "stateMutability": "view",
      "type": "function"
    },
    {
      "inputs": [
        {
          "internalType": "bytes",
          "name": "",
          "type": "bytes"
        }
      ],
      "name": "checkUpkeep",
      "outputs": [
        {
          "internalType": "bool",
          "name": "upkeepNeeded",
          "type": "bool"
        },
        {
          "internalType": "bytes",
          "name": "",
          "type": "bytes"
        }
      ],
      "stateMutability": "view",
      "type": "function"
    },
    {
      "inputs": [],
      "name": "currentBalance",
      "outputs": [
        {
          "internalType": "uint256",
          "name": "",
          "type": "uint256"
        }
      ],
      "stateMutability": "view",
      "type": "function"
    },
    {
      "inputs": [],
      "name": "deadline",
      "outputs": [
        {
          "internalType": "uint256",
          "name": "",
          "type": "uint256"
        }
      ],
      "stateMutability": "view",
      "type": "function"
    },
    {
      "inputs": [
        {
          "internalType": "uint256",
          "name": "_priceID",
          "type": "uint256"
        }
      ],
      "name": "deleteReward",
      "outputs": [],
      "stateMutability": "nonpayable",
      "type": "function"
    },
    {
      "inputs": [
        {
          "internalType": "uint256",
          "name": "",
          "type": "uint256"
        }
      ],
      "name": "digRewards",
      "outputs": [
        {
          "internalType": "uint256",
          "name": "price",
          "type": "uint256"
        },
        {
          "internalType": "string",
          "name": "title",
          "type": "string"
        },
        {
          "internalType": "string",
          "name": "description",
          "type": "string"
        },
        {
          "internalType": "uint256",
          "name": "delDate",
          "type": "uint256"
        },
        {
          "internalType": "uint256",
          "name": "quantity",
          "type": "uint256"
        },
        {
          "internalType": "bool",
          "name": "infinite",
          "type": "bool"
        }
      ],
      "stateMutability": "view",
      "type": "function"
    },
    {
      "inputs": [],
      "name": "donate",
      "outputs": [],
      "stateMutability": "payable",
      "type": "function"
    },
    {
      "inputs": [
        {
          "internalType": "address",
          "name": "",
          "type": "address"
        },
        {
          "internalType": "uint256",
          "name": "",
          "type": "uint256"
        }
      ],
      "name": "donations",
      "outputs": [
        {
          "internalType": "uint256",
          "name": "",
          "type": "uint256"
        }
      ],
      "stateMutability": "view",
      "type": "function"
    },
    {
      "inputs": [],
      "name": "duration",
      "outputs": [
        {
          "internalType": "uint256",
          "name": "",
          "type": "uint256"
        }
      ],
      "stateMutability": "view",
      "type": "function"
    },
    {
      "inputs": [],
      "name": "endCampaign",
      "outputs": [],
      "stateMutability": "nonpayable",
      "type": "function"
    },
    {
      "inputs": [],
      "name": "getCampaignDetails",
      "outputs": [
        {
          "components": [
            {
              "internalType": "address",
              "name": "i_creator",
              "type": "address"
            },
            {
              "internalType": "string",
              "name": "s_title",
              "type": "string"
            },
            {
              "internalType": "string",
              "name": "s_description",
              "type": "string"
            },
            {
              "internalType": "string",
              "name": "s_category",
              "type": "string"
            },
            {
              "internalType": "string[]",
              "name": "s_tags",
              "type": "string[]"
            },
            {
              "internalType": "uint256",
              "name": "goalAmount",
              "type": "uint256"
            },
            {
              "internalType": "uint256",
              "name": "duration",
              "type": "uint256"
            },
            {
              "internalType": "uint256",
              "name": "currentBalance",
              "type": "uint256"
            },
            {
              "internalType": "enum Campaign.C_State",
              "name": "currentC_State",
              "type": "uint8"
            },
            {
              "internalType": "string",
              "name": "s_imageURI",
              "type": "string"
            },
            {
              "internalType": "string",
              "name": "s_campaignURI",
              "type": "string"
            },
            {
              "internalType": "uint256",
              "name": "deadline",
              "type": "uint256"
            }
          ],
          "internalType": "struct Campaign.CampaignObject",
          "name": "",
          "type": "tuple"
        }
      ],
      "stateMutability": "view",
      "type": "function"
    },
    {
      "inputs": [
        {
          "internalType": "address",
          "name": "_donator",
          "type": "address"
        }
      ],
      "name": "getDonations",
      "outputs": [
        {
          "internalType": "uint256[]",
          "name": "",
          "type": "uint256[]"
        }
      ],
      "stateMutability": "view",
      "type": "function"
    },
    {
      "inputs": [],
      "name": "goalAmount",
      "outputs": [
        {
          "internalType": "uint256",
          "name": "",
          "type": "uint256"
        }
      ],
      "stateMutability": "view",
      "type": "function"
    },
    {
      "inputs": [],
      "name": "i_creator",
      "outputs": [
        {
          "internalType": "address payable",
          "name": "",
          "type": "address"
        }
      ],
      "stateMutability": "view",
      "type": "function"
    },
    {
      "inputs": [
        {
          "internalType": "uint256",
          "name": "_price",
          "type": "uint256"
        },
        {
          "internalType": "string",
          "name": "_title",
          "type": "string"
        },
        {
          "internalType": "string",
          "name": "_description",
          "type": "string"
        },
        {
          "internalType": "string[]",
          "name": "_perks",
          "type": "string[]"
        },
        {
          "internalType": "uint256",
          "name": "_quantity",
          "type": "uint256"
        },
        {
          "internalType": "bool",
          "name": "_infinite",
          "type": "bool"
        }
      ],
      "name": "makeDigitalReward",
      "outputs": [],
      "stateMutability": "nonpayable",
      "type": "function"
    },
    {
      "inputs": [
        {
          "internalType": "uint256",
          "name": "_price",
          "type": "uint256"
        },
        {
          "internalType": "string",
          "name": "_title",
          "type": "string"
        },
        {
          "internalType": "string",
          "name": "_description",
          "type": "string"
        },
        {
          "internalType": "string[]",
          "name": "_perks",
          "type": "string[]"
        },
        {
          "internalType": "uint256",
          "name": "_deadline",
          "type": "uint256"
        },
        {
          "internalType": "uint256",
          "name": "_quantity",
          "type": "uint256"
        },
        {
          "internalType": "string[]",
          "name": "_shipsTo",
          "type": "string[]"
        }
      ],
      "name": "makePhysicalReward",
      "outputs": [],
      "stateMutability": "nonpayable",
      "type": "function"
    },
    {
      "inputs": [],
      "name": "payout",
      "outputs": [],
      "stateMutability": "nonpayable",
      "type": "function"
    },
    {
      "inputs": [
        {
          "internalType": "bytes",
          "name": "",
          "type": "bytes"
        }
      ],
      "name": "performUpkeep",
      "outputs": [],
      "stateMutability": "nonpayable",
      "type": "function"
    },
    {
      "inputs": [
        {
          "internalType": "uint256",
          "name": "",
          "type": "uint256"
        }
      ],
      "name": "phyRewards",
      "outputs": [
        {
          "internalType": "uint256",
          "name": "price",
          "type": "uint256"
        },
        {
          "internalType": "string",
          "name": "title",
          "type": "string"
        },
        {
          "internalType": "string",
          "name": "description",
          "type": "string"
        },
        {
          "internalType": "uint256",
          "name": "delDate",
          "type": "uint256"
        },
        {
          "internalType": "uint256",
          "name": "quantity",
          "type": "uint256"
        }
      ],
      "stateMutability": "view",
      "type": "function"
    },
    {
      "inputs": [
        {
          "internalType": "address",
          "name": "_donator",
          "type": "address"
        }
      ],
      "name": "refund",
      "outputs": [],
      "stateMutability": "nonpayable",
      "type": "function"
    },
    {
      "inputs": [],
      "name": "s_campaignURI",
      "outputs": [
        {
          "internalType": "string",
          "name": "",
          "type": "string"
        }
      ],
      "stateMutability": "view",
      "type": "function"
    },
    {
      "inputs": [],
      "name": "s_category",
      "outputs": [
        {
          "internalType": "string",
          "name": "",
          "type": "string"
        }
      ],
      "stateMutability": "view",
      "type": "function"
    },
    {
      "inputs": [],
      "name": "s_description",
      "outputs": [
        {
          "internalType": "string",
          "name": "",
          "type": "string"
        }
      ],
      "stateMutability": "view",
      "type": "function"
    },
    {
      "inputs": [],
      "name": "s_imageURI",
      "outputs": [
        {
          "internalType": "string",
          "name": "",
          "type": "string"
        }
      ],
      "stateMutability": "view",
      "type": "function"
    },
    {
      "inputs": [
        {
          "internalType": "uint256",
          "name": "",
          "type": "uint256"
        }
      ],
      "name": "s_tags",
      "outputs": [
        {
          "internalType": "string",
          "name": "",
          "type": "string"
        }
      ],
      "stateMutability": "view",
      "type": "function"
    },
    {
      "inputs": [],
      "name": "s_title",
      "outputs": [
        {
          "internalType": "string",
          "name": "",
          "type": "string"
        }
      ],
      "stateMutability": "view",
      "type": "function"
    },
    {
      "inputs": [],
      "name": "timeBox",
      "outputs": [],
      "stateMutability": "nonpayable",
      "type": "function"
    },
    {
      "inputs": [
        {
          "internalType": "string",
          "name": "_campaignURI",
          "type": "string"
        }
      ],
      "name": "updateCampaignURI",
      "outputs": [],
      "stateMutability": "nonpayable",
      "type": "function"
    },
    {
      "inputs": [
        {
          "internalType": "uint256",
          "name": "_additionalTime",
          "type": "uint256"
        }
      ],
      "name": "updateDuration",
      "outputs": [],
      "stateMutability": "nonpayable",
      "type": "function"
    },
    {
      "inputs": [
        {
          "internalType": "uint256",
          "name": "_newGoalAmount",
          "type": "uint256"
        }
      ],
      "name": "updateGoalAmount",
      "outputs": [],
      "stateMutability": "nonpayable",
      "type": "function"
    }
  ],
  "bytecode": "0x6101206040526000600a60006101000a81548160ff021916908360028111156200002e576200002d620003f1565b5b02179055503480156200004057600080fd5b50604051620047de380380620047de833981810160405281019062000066919062000759565b8a73ffffffffffffffffffffffffffffffffffffffff1660808173ffffffffffffffffffffffffffffffffffffffff1660601b815250508960009080519060200190620000b59291906200026c565b508860019080519060200190620000ce9291906200026c565b508760029080519060200190620000e79291906200026c565b50866005908051906020019062000100929190620002fd565b50856006819055504260a08181525050624f1a0060a0516200012391906200094f565b60c081815250506200014860a05160c0516200025460201b6200265c1790919060201c565b8511156200017a576200016e60a05160c0516200025460201b6200265c1790919060201c565b60078190555062000182565b846007819055505b60075460a0516200019491906200094f565b6009819055508360039080519060200190620001b29291906200026c565b508260049080519060200190620001cb9291906200026c565b5060006008819055508173ffffffffffffffffffffffffffffffffffffffff1660e08173ffffffffffffffffffffffffffffffffffffffff1660601b815250508073ffffffffffffffffffffffffffffffffffffffff166101008173ffffffffffffffffffffffffffffffffffffffff1660601b81525050505050505050505050505062000a4c565b60008183620002649190620009ac565b905092915050565b8280546200027a9062000a16565b90600052602060002090601f0160209004810192826200029e5760008555620002ea565b82601f10620002b957805160ff1916838001178555620002ea565b82800160010185558215620002ea579182015b82811115620002e9578251825591602001919060010190620002cc565b5b509050620002f9919062000364565b5090565b82805482825590600052602060002090810192821562000351579160200282015b82811115620003505782518290805190602001906200033f9291906200026c565b50916020019190600101906200031e565b5b50905062000360919062000383565b5090565b5b808211156200037f57600081600090555060010162000365565b5090565b5b80821115620003a757600081816200039d9190620003ab565b5060010162000384565b5090565b508054620003b99062000a16565b6000825580601f10620003cd5750620003ee565b601f016020900490600052602060002090810190620003ed919062000364565b5b50565b7f4e487b7100000000000000000000000000000000000000000000000000000000600052602160045260246000fd5b6000604051905090565b600080fd5b600080fd5b600073ffffffffffffffffffffffffffffffffffffffff82169050919050565b6000620004618262000434565b9050919050565b620004738162000454565b81146200047f57600080fd5b50565b600081519050620004938162000468565b92915050565b600080fd5b600080fd5b6000601f19601f8301169050919050565b7f4e487b7100000000000000000000000000000000000000000000000000000000600052604160045260246000fd5b620004ee82620004a3565b810181811067ffffffffffffffff8211171562000510576200050f620004b4565b5b80604052505050565b60006200052562000420565b9050620005338282620004e3565b919050565b600067ffffffffffffffff821115620005565762000555620004b4565b5b6200056182620004a3565b9050602081019050919050565b60005b838110156200058e57808201518184015260208101905062000571565b838111156200059e576000848401525b50505050565b6000620005bb620005b58462000538565b62000519565b905082815260208101848484011115620005da57620005d96200049e565b5b620005e78482856200056e565b509392505050565b600082601f83011262000607576200060662000499565b5b815162000619848260208601620005a4565b91505092915050565b600067ffffffffffffffff82111562000640576200063f620004b4565b5b602082029050602081019050919050565b600080fd5b60006200066d620006678462000622565b62000519565b9050808382526020820190506020840283018581111562000693576200069262000651565b5b835b81811015620006e157805167ffffffffffffffff811115620006bc57620006bb62000499565b5b808601620006cb8982620005ef565b8552602085019450505060208101905062000695565b5050509392505050565b600082601f83011262000703576200070262000499565b5b81516200071584826020860162000656565b91505092915050565b6000819050919050565b62000733816200071e565b81146200073f57600080fd5b50565b600081519050620007538162000728565b92915050565b60008060008060008060008060008060006101608c8e0312156200078257620007816200042a565b5b6000620007928e828f0162000482565b9b505060208c015167ffffffffffffffff811115620007b657620007b56200042f565b5b620007c48e828f01620005ef565b9a505060408c015167ffffffffffffffff811115620007e857620007e76200042f565b5b620007f68e828f01620005ef565b99505060608c015167ffffffffffffffff8111156200081a57620008196200042f565b5b620008288e828f01620005ef565b98505060808c015167ffffffffffffffff8111156200084c576200084b6200042f565b5b6200085a8e828f01620006eb565b97505060a06200086d8e828f0162000742565b96505060c0620008808e828f0162000742565b95505060e08c015167ffffffffffffffff811115620008a457620008a36200042f565b5b620008b28e828f01620005ef565b9450506101008c015167ffffffffffffffff811115620008d757620008d66200042f565b5b620008e58e828f01620005ef565b935050610120620008f98e828f0162000482565b9250506101406200090d8e828f0162000482565b9150509295989b509295989b9093969950565b7f4e487b7100000000000000000000000000000000000000000000000000000000600052601160045260246000fd5b60006200095c826200071e565b915062000969836200071e565b9250827fffffffffffffffffffffffffffffffffffffffffffffffffffffffffffffffff03821115620009a157620009a062000920565b5b828201905092915050565b6000620009b9826200071e565b9150620009c6836200071e565b925082821015620009dc57620009db62000920565b5b828203905092915050565b7f4e487b7100000000000000000000000000000000000000000000000000000000600052602260045260246000fd5b6000600282049050600182168062000a2f57607f821691505b6020821081141562000a465762000a45620009e7565b5b50919050565b60805160601c60a05160c05160e05160601c6101005160601c613cc662000b1860003960008181610ef10152610f5701526000610f16015260008181610d070152610d6e015260008181610ce601528181610d4d01526117ce0152600081816106fb01528181610c5301528181610e5f01528181611047015281816111ee01528181611326015281816114ad015281816115bb0152818161166c0152818161185c01528181611bc301528181611be701528181611df501528181611fa801526120af0152613cc66000f3fe6080604052600436106101cd5760003560e01c806369066ae9116100f7578063c00732dc11610095578063ead1b1bf11610064578063ead1b1bf14610647578063ed88c68e14610670578063f526c8491461067a578063fa89401a146106bc576101cd565b8063c00732dc1461059f578063ce2a0572146105c8578063ce845d1d146105f3578063e7cf1ab71461061e576101cd565b80638c39bedb116100d15780638c39bedb146104cb57806395086ed11461050c57806399a8502d14610549578063b145603e14610574576101cd565b806369066ae9146104395780636e04ff0d1461047657806371aac7f9146104b4576101cd565b80634278ac8b1161016f5780634ef897191161013e5780634ef89719146103a357806360bf74ee146103ce57806360fa9a72146103f757806363bd1d4a14610422576101cd565b80634278ac8b1461030f578063431f9a231461033a5780634585e33b146103515780634d695bdb1461037a576101cd565b80631910bdc2116101ab5780631910bdc2146102535780631b50ad09146102905780632636b945146102b957806329dcb0cf146102e4576101cd565b80630c611f24146101d25780630fb5a6b4146101fd57806315a46ee614610228575b600080fd5b3480156101de57600080fd5b506101e76106e5565b6040516101f49190612c5f565b60405180910390f35b34801561020957600080fd5b50610212610b26565b60405161021f9190612c90565b60405180910390f35b34801561023457600080fd5b5061023d610b2c565b60405161024a9190612cf5565b60405180910390f35b34801561025f57600080fd5b5061027a60048036038101906102759190612d57565b610bba565b6040516102879190612e33565b60405180910390f35b34801561029c57600080fd5b506102b760048036038101906102b29190612e81565b610c51565b005b3480156102c557600080fd5b506102ce610dc3565b6040516102db9190612c90565b60405180910390f35b3480156102f057600080fd5b506102f9610dc9565b6040516103069190612c90565b60405180910390f35b34801561031b57600080fd5b50610324610dcf565b6040516103319190612cf5565b60405180910390f35b34801561034657600080fd5b5061034f610e5d565b005b34801561035d57600080fd5b5061037860048036038101906103739190612f13565b6110ee565b005b34801561038657600080fd5b506103a1600480360381019061039c9190613090565b6111ec565b005b3480156103af57600080fd5b506103b8611296565b6040516103c59190612cf5565b60405180910390f35b3480156103da57600080fd5b506103f560048036038101906103f091906131ba565b611324565b005b34801561040357600080fd5b5061040c611498565b60405161041991906132db565b60405180910390f35b34801561042e57600080fd5b506104376114ab565b005b34801561044557600080fd5b50610460600480360381019061045b9190612e81565b6116dd565b60405161046d9190612cf5565b60405180910390f35b34801561048257600080fd5b5061049d60048036038101906104989190613397565b611789565b6040516104ab929190613450565b60405180910390f35b3480156104c057600080fd5b506104c961185a565b005b3480156104d757600080fd5b506104f260048036038101906104ed9190612e81565b6119bc565b604051610503959493929190613480565b60405180910390f35b34801561051857600080fd5b50610533600480360381019061052e91906134e1565b611b02565b6040516105409190612c90565b60405180910390f35b34801561055557600080fd5b5061055e611b33565b60405161056b9190612cf5565b60405180910390f35b34801561058057600080fd5b50610589611bc1565b6040516105969190613542565b60405180910390f35b3480156105ab57600080fd5b506105c660048036038101906105c19190613589565b611be5565b005b3480156105d457600080fd5b506105dd611d5f565b6040516105ea9190612cf5565b60405180910390f35b3480156105ff57600080fd5b50610608611ded565b6040516106159190612c90565b60405180910390f35b34801561062a57600080fd5b5061064560048036038101906106409190612e81565b611df3565b005b34801561065357600080fd5b5061066e60048036038101906106699190612e81565b611fa6565b005b610678612040565b005b34801561068657600080fd5b506106a1600480360381019061069c9190612e81565b612213565b6040516106b39695949392919061366a565b60405180910390f35b3480156106c857600080fd5b506106e360048036038101906106de9190612d57565b61236c565b005b6106ed6126da565b6040518061018001604052807f000000000000000000000000000000000000000000000000000000000000000073ffffffffffffffffffffffffffffffffffffffff1681526020016000805461074290613708565b80601f016020809104026020016040519081016040528092919081815260200182805461076e90613708565b80156107bb5780601f10610790576101008083540402835291602001916107bb565b820191906000526020600020905b81548152906001019060200180831161079e57829003601f168201915b50505050508152602001600180546107d290613708565b80601f01602080910402602001604051908101604052809291908181526020018280546107fe90613708565b801561084b5780601f106108205761010080835404028352916020019161084b565b820191906000526020600020905b81548152906001019060200180831161082e57829003601f168201915b505050505081526020016002805461086290613708565b80601f016020809104026020016040519081016040528092919081815260200182805461088e90613708565b80156108db5780601f106108b0576101008083540402835291602001916108db565b820191906000526020600020905b8154815290600101906020018083116108be57829003601f168201915b505050505081526020016005805480602002602001604051908101604052809291908181526020016000905b828210156109b357838290600052602060002001805461092690613708565b80601f016020809104026020016040519081016040528092919081815260200182805461095290613708565b801561099f5780601f106109745761010080835404028352916020019161099f565b820191906000526020600020905b81548152906001019060200180831161098257829003601f168201915b505050505081526020019060010190610907565b505050508152602001600654815260200160075481526020016008548152602001600a60009054906101000a900460ff1660028111156109f6576109f5612ac1565b5b815260200160038054610a0890613708565b80601f0160208091040260200160405190810160405280929190818152602001828054610a3490613708565b8015610a815780601f10610a5657610100808354040283529160200191610a81565b820191906000526020600020905b815481529060010190602001808311610a6457829003601f168201915b5050505050815260200160048054610a9890613708565b80601f0160208091040260200160405190810160405280929190818152602001828054610ac490613708565b8015610b115780601f10610ae657610100808354040283529160200191610b11565b820191906000526020600020905b815481529060010190602001808311610af457829003601f168201915b50505050508152602001600954815250905090565b60075481565b60048054610b3990613708565b80601f0160208091040260200160405190810160405280929190818152602001828054610b6590613708565b8015610bb25780601f10610b8757610100808354040283529160200191610bb2565b820191906000526020600020905b815481529060010190602001808311610b9557829003601f168201915b505050505081565b6060600e60008373ffffffffffffffffffffffffffffffffffffffff1673ffffffffffffffffffffffffffffffffffffffff168152602001908152602001600020805480602002602001604051908101604052809291908181526020018280548015610c4557602002820191906000526020600020905b815481526020019060010190808311610c31575b50505050509050919050565b7f000000000000000000000000000000000000000000000000000000000000000073ffffffffffffffffffffffffffffffffffffffff163373ffffffffffffffffffffffffffffffffffffffff1614610ce157336040517fef54c817000000000000000000000000000000000000000000000000000000008152600401610cd89190613749565b60405180910390fd5b610d347f00000000000000000000000000000000000000000000000000000000000000007f000000000000000000000000000000000000000000000000000000000000000061265c90919063ffffffff16565b60075482610d429190613793565b1115610da657610d9b7f00000000000000000000000000000000000000000000000000000000000000007f000000000000000000000000000000000000000000000000000000000000000061265c90919063ffffffff16565b600781905550610dc0565b8060076000828254610db89190613793565b925050819055505b50565b60065481565b60095481565b60028054610ddc90613708565b80601f0160208091040260200160405190810160405280929190818152602001828054610e0890613708565b8015610e555780601f10610e2a57610100808354040283529160200191610e55565b820191906000526020600020905b815481529060010190602001808311610e3857829003601f168201915b505050505081565b7f000000000000000000000000000000000000000000000000000000000000000073ffffffffffffffffffffffffffffffffffffffff163373ffffffffffffffffffffffffffffffffffffffff1614610eed57336040517fef54c817000000000000000000000000000000000000000000000000000000008152600401610ee49190613749565b60405180910390fd5b60007f0000000000000000000000000000000000000000000000000000000000000000905060007f0000000000000000000000000000000000000000000000000000000000000000905060008173ffffffffffffffffffffffffffffffffffffffff166370a082317f00000000000000000000000000000000000000000000000000000000000000006040518263ffffffff1660e01b8152600401610f929190613749565b60206040518083038186803b158015610faa57600080fd5b505afa158015610fbe573d6000803e3d6000fd5b505050506040513d601f19601f82011682018060405250810190610fe291906137fe565b11611022576040517f08c379a000000000000000000000000000000000000000000000000000000000815260040161101990613877565b60405180910390fd5b8173ffffffffffffffffffffffffffffffffffffffff166318a9fb8a6000306207a1207f0000000000000000000000000000000000000000000000000000000000000000678ac7230489e8000060006040518763ffffffff1660e01b815260040161109296959493929190613abd565b602060405180830381600087803b1580156110ac57600080fd5b505af11580156110c0573d6000803e3d6000fd5b505050506040513d601f19601f820116820180604052508101906110e491906137fe565b600b819055505050565b600061110860405180602001604052806000815250611789565b50905080611142576040517f311f87a100000000000000000000000000000000000000000000000000000000815260040160405180910390fd5b6001600a60006101000a81548160ff0219169083600281111561116857611167612ac1565b5b02179055507f5cf8cd2bd40f758a95257bed666285eb82801f1bf9223b8ec1481e510ba2e82d3060405161119c9190613749565b60405180910390a1600654600854106111e7577f5369558c667e962b633128a01c31764d053da51f61d17370d327ed17f77deccc306040516111de9190613749565b60405180910390a15b505050565b7f000000000000000000000000000000000000000000000000000000000000000073ffffffffffffffffffffffffffffffffffffffff163373ffffffffffffffffffffffffffffffffffffffff161461127c57336040517fef54c8170000000000000000000000000000000000000000000000000000000081526004016112739190613749565b60405180910390fd5b8060049080519060200190611292929190612763565b5050565b600180546112a390613708565b80601f01602080910402602001604051908101604052809291908181526020018280546112cf90613708565b801561131c5780601f106112f15761010080835404028352916020019161131c565b820191906000526020600020905b8154815290600101906020018083116112ff57829003601f168201915b505050505081565b7f000000000000000000000000000000000000000000000000000000000000000073ffffffffffffffffffffffffffffffffffffffff163373ffffffffffffffffffffffffffffffffffffffff16146113b457336040517fef54c8170000000000000000000000000000000000000000000000000000000081526004016113ab9190613749565b60405180910390fd5b6040518060e0016040528088815260200187815260200186815260200185815260200184815260200183815260200182815250600c6000898152602001908152602001600020600082015181600001556020820151816001019080519060200190611420929190612763565b50604082015181600201908051906020019061143d929190612763565b50606082015181600301908051906020019061145a9291906127e9565b506080820151816004015560a0820151816005015560c082015181600601908051906020019061148b9291906127e9565b5090505050505050505050565b600a60009054906101000a900460ff1681565b7f000000000000000000000000000000000000000000000000000000000000000073ffffffffffffffffffffffffffffffffffffffff163373ffffffffffffffffffffffffffffffffffffffff161461153b57336040517fef54c8170000000000000000000000000000000000000000000000000000000081526004016115329190613749565b60405180910390fd5b6001600281111561154f5761154e612ac1565b5b600a60009054906101000a900460ff16600281111561157157611570612ac1565b5b146115a8576040517ffa4021a300000000000000000000000000000000000000000000000000000000815260040160405180910390fd5b60006008549050600060088190555060007f000000000000000000000000000000000000000000000000000000000000000073ffffffffffffffffffffffffffffffffffffffff16826040516115fd90613b7d565b60006040518083038185875af1925050503d806000811461163a576040519150601f19603f3d011682016040523d82523d6000602084013e61163f565b606091505b5050905080156116a7577fba5e837743d81ad0e6deb16089dbb65b549fdda8ad802fd8d4822884d70dc8b27f00000000000000000000000000000000000000000000000000000000000000003060405161169a929190613b92565b60405180910390a16116d9565b6040517f11456ffb00000000000000000000000000000000000000000000000000000000815260040160405180910390fd5b5050565b600581815481106116ed57600080fd5b90600052602060002001600091509050805461170890613708565b80601f016020809104026020016040519081016040528092919081815260200182805461173490613708565b80156117815780601f1061175657610100808354040283529160200191611781565b820191906000526020600020905b81548152906001019060200180831161176457829003601f168201915b505050505081565b6000606060008060028111156117a2576117a1612ac1565b5b600a60009054906101000a900460ff1660028111156117c4576117c3612ac1565b5b14905060006007547f0000000000000000000000000000000000000000000000000000000000000000426117f89190613bbb565b1190506000804711905081801561180c5750825b80156118155750805b9450846040518060400160405280600381526020017f307830000000000000000000000000000000000000000000000000000000000081525094509450505050915091565b7f000000000000000000000000000000000000000000000000000000000000000073ffffffffffffffffffffffffffffffffffffffff163373ffffffffffffffffffffffffffffffffffffffff16146118ea57336040517fef54c8170000000000000000000000000000000000000000000000000000000081526004016118e19190613749565b60405180910390fd5b600160028111156118fe576118fd612ac1565b5b600a60009054906101000a900460ff1660028111156119205761191f612ac1565b5b141561196357306040517fd6d7e5c100000000000000000000000000000000000000000000000000000000815260040161195a9190613749565b60405180910390fd5b6002600a60006101000a81548160ff0219169083600281111561198957611988612ac1565b5b02179055507fb83ebe09f40e9293bdea1d6567fae3175119d3d0ff13c4b4df15994837dd7f5160405160405180910390a1565b600c6020528060005260406000206000915090508060000154908060010180546119e590613708565b80601f0160208091040260200160405190810160405280929190818152602001828054611a1190613708565b8015611a5e5780601f10611a3357610100808354040283529160200191611a5e565b820191906000526020600020905b815481529060010190602001808311611a4157829003601f168201915b505050505090806002018054611a7390613708565b80601f0160208091040260200160405190810160405280929190818152602001828054611a9f90613708565b8015611aec5780601f10611ac157610100808354040283529160200191611aec565b820191906000526020600020905b815481529060010190602001808311611acf57829003601f168201915b5050505050908060040154908060050154905085565b600e6020528160005260406000208181548110611b1e57600080fd5b90600052602060002001600091509150505481565b60008054611b4090613708565b80601f0160208091040260200160405190810160405280929190818152602001828054611b6c90613708565b8015611bb95780601f10611b8e57610100808354040283529160200191611bb9565b820191906000526020600020905b815481529060010190602001808311611b9c57829003601f168201915b505050505081565b7f000000000000000000000000000000000000000000000000000000000000000081565b7f000000000000000000000000000000000000000000000000000000000000000073ffffffffffffffffffffffffffffffffffffffff163373ffffffffffffffffffffffffffffffffffffffff1614611c7557336040517fef54c817000000000000000000000000000000000000000000000000000000008152600401611c6c9190613749565b60405180910390fd5b6040518060e001604052808781526020018681526020018581526020018481526020016009548152602001838152602001821515815250600d6000888152602001908152602001600020600082015181600001556020820151816001019080519060200190611ce5929190612763565b506040820151816002019080519060200190611d02929190612763565b506060820151816003019080519060200190611d1f9291906127e9565b506080820151816004015560a0820151816005015560c08201518160060160006101000a81548160ff021916908315150217905550905050505050505050565b60038054611d6c90613708565b80601f0160208091040260200160405190810160405280929190818152602001828054611d9890613708565b8015611de55780601f10611dba57610100808354040283529160200191611de5565b820191906000526020600020905b815481529060010190602001808311611dc857829003601f168201915b505050505081565b60085481565b7f000000000000000000000000000000000000000000000000000000000000000073ffffffffffffffffffffffffffffffffffffffff163373ffffffffffffffffffffffffffffffffffffffff1614611e8357336040517fef54c817000000000000000000000000000000000000000000000000000000008152600401611e7a9190613749565b60405180910390fd5b6000600c6000838152602001908152602001600020600001541115611f1157600c6000828152602001908152602001600020600080820160009055600182016000611ece9190612849565b600282016000611ede9190612849565b600382016000611eee9190612889565b60048201600090556005820160009055600682016000611f0e9190612889565b50505b6000600d6000838152602001908152602001600020600001541115611fa357600d6000828152602001908152602001600020600080820160009055600182016000611f5c9190612849565b600282016000611f6c9190612849565b600382016000611f7c9190612889565b600482016000905560058201600090556006820160006101000a81549060ff021916905550505b50565b7f000000000000000000000000000000000000000000000000000000000000000073ffffffffffffffffffffffffffffffffffffffff163373ffffffffffffffffffffffffffffffffffffffff161461203657336040517fef54c81700000000000000000000000000000000000000000000000000000000815260040161202d9190613749565b60405180910390fd5b8060068190555050565b6000600281111561205457612053612ac1565b5b600a60009054906101000a900460ff16600281111561207657612075612ac1565b5b146120ad576040517ffa4021a300000000000000000000000000000000000000000000000000000000815260040160405180910390fd5b7f000000000000000000000000000000000000000000000000000000000000000073ffffffffffffffffffffffffffffffffffffffff163373ffffffffffffffffffffffffffffffffffffffff16141561213e57336040517f911018950000000000000000000000000000000000000000000000000000000081526004016121359190613749565b60405180910390fd5b600e60003373ffffffffffffffffffffffffffffffffffffffff1673ffffffffffffffffffffffffffffffffffffffff1681526020019081526020016000203490806001815401808255809150506001900390600052602060002001600090919091909150556121b93460085461267290919063ffffffff16565b6008819055503373ffffffffffffffffffffffffffffffffffffffff167fe76ad748537a48e778fef43dda4a6bd1b50cd62385f9f21a9ca267492355120834600854604051612209929190613bef565b60405180910390a2565b600d60205280600052604060002060009150905080600001549080600101805461223c90613708565b80601f016020809104026020016040519081016040528092919081815260200182805461226890613708565b80156122b55780601f1061228a576101008083540402835291602001916122b5565b820191906000526020600020905b81548152906001019060200180831161229857829003601f168201915b5050505050908060020180546122ca90613708565b80601f01602080910402602001604051908101604052809291908181526020018280546122f690613708565b80156123435780601f1061231857610100808354040283529160200191612343565b820191906000526020600020905b81548152906001019060200180831161232657829003601f168201915b5050505050908060040154908060050154908060060160009054906101000a900460ff16905086565b600160028111156123805761237f612ac1565b5b600a60009054906101000a900460ff1660028111156123a2576123a1612ac1565b5b14156123e557306040517fd6d7e5c10000000000000000000000000000000000000000000000000000000081526004016123dc9190613749565b60405180910390fd5b6000600e60008373ffffffffffffffffffffffffffffffffffffffff1673ffffffffffffffffffffffffffffffffffffffff16815260200190815260200160002080549050141561246d57806040517fc43858590000000000000000000000000000000000000000000000000000000081526004016124649190613749565b60405180910390fd5b6000612505600e60008473ffffffffffffffffffffffffffffffffffffffff1673ffffffffffffffffffffffffffffffffffffffff1681526020019081526020016000208054806020026020016040519081016040528092919081815260200182805480156124fb57602002820191906000526020600020905b8154815260200190600101908083116124e7575b5050505050612688565b9050600e60008373ffffffffffffffffffffffffffffffffffffffff1673ffffffffffffffffffffffffffffffffffffffff168152602001908152602001600020600061255291906128aa565b80600854101561259957306040517f6db510f50000000000000000000000000000000000000000000000000000000081526004016125909190613749565b60405180910390fd5b6125ae8160085461265c90919063ffffffff16565b60088190555060008273ffffffffffffffffffffffffffffffffffffffff16826040516125da90613b7d565b60006040518083038185875af1925050503d8060008114612617576040519150601f19603f3d011682016040523d82523d6000602084013e61261c565b606091505b5050905080612657576040517f92e9f8f100000000000000000000000000000000000000000000000000000000815260040160405180910390fd5b505050565b6000818361266a9190613bbb565b905092915050565b600081836126809190613793565b905092915050565b600080600090505b82518110156126d4578281815181106126ac576126ab613c18565b5b6020026020010151826126bf9190613793565b915080806126cc90613c47565b915050612690565b50919050565b604051806101800160405280600073ffffffffffffffffffffffffffffffffffffffff168152602001606081526020016060815260200160608152602001606081526020016000815260200160008152602001600081526020016000600281111561274857612747612ac1565b5b81526020016060815260200160608152602001600081525090565b82805461276f90613708565b90600052602060002090601f01602090048101928261279157600085556127d8565b82601f106127aa57805160ff19168380011785556127d8565b828001600101855582156127d8579182015b828111156127d75782518255916020019190600101906127bc565b5b5090506127e591906128cb565b5090565b828054828255906000526020600020908101928215612838579160200282015b82811115612837578251829080519060200190612827929190612763565b5091602001919060010190612809565b5b50905061284591906128e8565b5090565b50805461285590613708565b6000825580601f106128675750612886565b601f01602090049060005260206000209081019061288591906128cb565b5b50565b50805460008255906000526020600020908101906128a791906128e8565b50565b50805460008255906000526020600020908101906128c891906128cb565b50565b5b808211156128e45760008160009055506001016128cc565b5090565b5b8082111561290857600081816128ff9190612849565b506001016128e9565b5090565b600073ffffffffffffffffffffffffffffffffffffffff82169050919050565b60006129378261290c565b9050919050565b6129478161292c565b82525050565b600081519050919050565b600082825260208201905092915050565b60005b8381101561298757808201518184015260208101905061296c565b83811115612996576000848401525b50505050565b6000601f19601f8301169050919050565b60006129b88261294d565b6129c28185612958565b93506129d2818560208601612969565b6129db8161299c565b840191505092915050565b600081519050919050565b600082825260208201905092915050565b6000819050602082019050919050565b6000612a1e83836129ad565b905092915050565b6000602082019050919050565b6000612a3e826129e6565b612a4881856129f1565b935083602082028501612a5a85612a02565b8060005b85811015612a965784840389528151612a778582612a12565b9450612a8283612a26565b925060208a01995050600181019050612a5e565b50829750879550505050505092915050565b6000819050919050565b612abb81612aa8565b82525050565b7f4e487b7100000000000000000000000000000000000000000000000000000000600052602160045260246000fd5b60038110612b0157612b00612ac1565b5b50565b6000819050612b1282612af0565b919050565b6000612b2282612b04565b9050919050565b612b3281612b17565b82525050565b600061018083016000830151612b51600086018261293e565b5060208301518482036020860152612b6982826129ad565b91505060408301518482036040860152612b8382826129ad565b91505060608301518482036060860152612b9d82826129ad565b91505060808301518482036080860152612bb78282612a33565b91505060a0830151612bcc60a0860182612ab2565b5060c0830151612bdf60c0860182612ab2565b5060e0830151612bf260e0860182612ab2565b50610100830151612c07610100860182612b29565b50610120830151848203610120860152612c2182826129ad565b915050610140830151848203610140860152612c3d82826129ad565b915050610160830151612c54610160860182612ab2565b508091505092915050565b60006020820190508181036000830152612c798184612b38565b905092915050565b612c8a81612aa8565b82525050565b6000602082019050612ca56000830184612c81565b92915050565b600082825260208201905092915050565b6000612cc78261294d565b612cd18185612cab565b9350612ce1818560208601612969565b612cea8161299c565b840191505092915050565b60006020820190508181036000830152612d0f8184612cbc565b905092915050565b6000604051905090565b600080fd5b600080fd5b612d348161292c565b8114612d3f57600080fd5b50565b600081359050612d5181612d2b565b92915050565b600060208284031215612d6d57612d6c612d21565b5b6000612d7b84828501612d42565b91505092915050565b600081519050919050565b600082825260208201905092915050565b6000819050602082019050919050565b6000612dbc8383612ab2565b60208301905092915050565b6000602082019050919050565b6000612de082612d84565b612dea8185612d8f565b9350612df583612da0565b8060005b83811015612e26578151612e0d8882612db0565b9750612e1883612dc8565b925050600181019050612df9565b5085935050505092915050565b60006020820190508181036000830152612e4d8184612dd5565b905092915050565b612e5e81612aa8565b8114612e6957600080fd5b50565b600081359050612e7b81612e55565b92915050565b600060208284031215612e9757612e96612d21565b5b6000612ea584828501612e6c565b91505092915050565b600080fd5b600080fd5b600080fd5b60008083601f840112612ed357612ed2612eae565b5b8235905067ffffffffffffffff811115612ef057612eef612eb3565b5b602083019150836001820283011115612f0c57612f0b612eb8565b5b9250929050565b60008060208385031215612f2a57612f29612d21565b5b600083013567ffffffffffffffff811115612f4857612f47612d26565b5b612f5485828601612ebd565b92509250509250929050565b600080fd5b7f4e487b7100000000000000000000000000000000000000000000000000000000600052604160045260246000fd5b612f9d8261299c565b810181811067ffffffffffffffff82111715612fbc57612fbb612f65565b5b80604052505050565b6000612fcf612d17565b9050612fdb8282612f94565b919050565b600067ffffffffffffffff821115612ffb57612ffa612f65565b5b6130048261299c565b9050602081019050919050565b82818337600083830152505050565b600061303361302e84612fe0565b612fc5565b90508281526020810184848401111561304f5761304e612f60565b5b61305a848285613011565b509392505050565b600082601f83011261307757613076612eae565b5b8135613087848260208601613020565b91505092915050565b6000602082840312156130a6576130a5612d21565b5b600082013567ffffffffffffffff8111156130c4576130c3612d26565b5b6130d084828501613062565b91505092915050565b600067ffffffffffffffff8211156130f4576130f3612f65565b5b602082029050602081019050919050565b6000613118613113846130d9565b612fc5565b9050808382526020820190506020840283018581111561313b5761313a612eb8565b5b835b8181101561318257803567ffffffffffffffff8111156131605761315f612eae565b5b80860161316d8982613062565b8552602085019450505060208101905061313d565b5050509392505050565b600082601f8301126131a1576131a0612eae565b5b81356131b1848260208601613105565b91505092915050565b600080600080600080600060e0888a0312156131d9576131d8612d21565b5b60006131e78a828b01612e6c565b975050602088013567ffffffffffffffff81111561320857613207612d26565b5b6132148a828b01613062565b965050604088013567ffffffffffffffff81111561323557613234612d26565b5b6132418a828b01613062565b955050606088013567ffffffffffffffff81111561326257613261612d26565b5b61326e8a828b0161318c565b945050608061327f8a828b01612e6c565b93505060a06132908a828b01612e6c565b92505060c088013567ffffffffffffffff8111156132b1576132b0612d26565b5b6132bd8a828b0161318c565b91505092959891949750929550565b6132d581612b17565b82525050565b60006020820190506132f060008301846132cc565b92915050565b600067ffffffffffffffff82111561331157613310612f65565b5b61331a8261299c565b9050602081019050919050565b600061333a613335846132f6565b612fc5565b90508281526020810184848401111561335657613355612f60565b5b613361848285613011565b509392505050565b600082601f83011261337e5761337d612eae565b5b813561338e848260208601613327565b91505092915050565b6000602082840312156133ad576133ac612d21565b5b600082013567ffffffffffffffff8111156133cb576133ca612d26565b5b6133d784828501613369565b91505092915050565b60008115159050919050565b6133f5816133e0565b82525050565b600081519050919050565b600082825260208201905092915050565b6000613422826133fb565b61342c8185613406565b935061343c818560208601612969565b6134458161299c565b840191505092915050565b600060408201905061346560008301856133ec565b81810360208301526134778184613417565b90509392505050565b600060a0820190506134956000830188612c81565b81810360208301526134a78187612cbc565b905081810360408301526134bb8186612cbc565b90506134ca6060830185612c81565b6134d76080830184612c81565b9695505050505050565b600080604083850312156134f8576134f7612d21565b5b600061350685828601612d42565b925050602061351785828601612e6c565b9150509250929050565b600061352c8261290c565b9050919050565b61353c81613521565b82525050565b60006020820190506135576000830184613533565b92915050565b613566816133e0565b811461357157600080fd5b50565b6000813590506135838161355d565b92915050565b60008060008060008060c087890312156135a6576135a5612d21565b5b60006135b489828a01612e6c565b965050602087013567ffffffffffffffff8111156135d5576135d4612d26565b5b6135e189828a01613062565b955050604087013567ffffffffffffffff81111561360257613601612d26565b5b61360e89828a01613062565b945050606087013567ffffffffffffffff81111561362f5761362e612d26565b5b61363b89828a0161318c565b935050608061364c89828a01612e6c565b92505060a061365d89828a01613574565b9150509295509295509295565b600060c08201905061367f6000830189612c81565b81810360208301526136918188612cbc565b905081810360408301526136a58187612cbc565b90506136b46060830186612c81565b6136c16080830185612c81565b6136ce60a08301846133ec565b979650505050505050565b7f4e487b7100000000000000000000000000000000000000000000000000000000600052602260045260246000fd5b6000600282049050600182168061372057607f821691505b60208210811415613734576137336136d9565b5b50919050565b6137438161292c565b82525050565b600060208201905061375e600083018461373a565b92915050565b7f4e487b7100000000000000000000000000000000000000000000000000000000600052601160045260246000fd5b600061379e82612aa8565b91506137a983612aa8565b9250827fffffffffffffffffffffffffffffffffffffffffffffffffffffffffffffffff038211156137de576137dd613764565b5b828201905092915050565b6000815190506137f881612e55565b92915050565b60006020828403121561381457613813612d21565b5b6000613822848285016137e9565b91505092915050565b7f6e6f2066756e6473000000000000000000000000000000000000000000000000600082015250565b6000613861600883612cab565b915061386c8261382b565b602082019050919050565b6000602082019050818103600083015261389081613854565b9050919050565b60008190508160005260206000209050919050565b600081546138b981613708565b6138c38186612cab565b945060018216600081146138de57600181146138f057613923565b60ff1983168652602086019350613923565b6138f985613897565b60005b8381101561391b578154818901526001820191506020810190506138fc565b808801955050505b50505092915050565b7f3078000000000000000000000000000000000000000000000000000000000000600082015250565b6000613962600283613406565b915061396d8261392c565b602082019050919050565b6000819050919050565b600063ffffffff82169050919050565b6000819050919050565b60006139b76139b26139ad84613978565b613992565b613982565b9050919050565b6139c78161399c565b82525050565b60006139e86139e36139de8461290c565b613992565b61290c565b9050919050565b60006139fa826139cd565b9050919050565b6000613a0c826139ef565b9050919050565b613a1c81613a01565b82525050565b6000819050919050565b60006bffffffffffffffffffffffff82169050919050565b6000613a5f613a5a613a5584613a22565b613992565b613a2c565b9050919050565b613a6f81613a44565b82525050565b6000819050919050565b600060ff82169050919050565b6000613aa7613aa2613a9d84613a75565b613992565b613a7f565b9050919050565b613ab781613a8c565b82525050565b6000610100820190508181036000830152613ad881896138ac565b90508181036020830152613aeb81613955565b9050613afa604083018861373a565b613b0760608301876139be565b613b146080830186613a13565b81810360a0830152613b2581613955565b9050613b3460c0830185613a66565b613b4160e0830184613aae565b979650505050505050565b600081905092915050565b50565b6000613b67600083613b4c565b9150613b7282613b57565b600082019050919050565b6000613b8882613b5a565b9150819050919050565b6000604082019050613ba76000830185613a13565b613bb4602083018461373a565b9392505050565b6000613bc682612aa8565b9150613bd183612aa8565b925082821015613be457613be3613764565b5b828203905092915050565b6000604082019050613c046000830185612c81565b613c116020830184612c81565b9392505050565b7f4e487b7100000000000000000000000000000000000000000000000000000000600052603260045260246000fd5b6000613c5282612aa8565b91507fffffffffffffffffffffffffffffffffffffffffffffffffffffffffffffffff821415613c8557613c84613764565b5b60018201905091905056fea264697066735822122028f0439fe0cd768a312a684b0c2f023d1fa9c1a8725f61b81b9bbac688298e3364736f6c63430008080033",
  "linkReferences": {},
  "deployedLinkReferences": {}
}